{
  "abi": [
    {
      "type": "constructor",
      "inputs": [
        {
          "name": "_owner",
          "type": "address",
          "internalType": "address"
        },
        {
          "name": "_guardian",
          "type": "address",
          "internalType": "address"
        },
        {
          "name": "_priceFeed",
          "type": "address",
          "internalType": "address"
        },
        {
          "name": "_feeReceiver",
          "type": "address",
          "internalType": "address"
        },
        {
          "name": "_keepers",
          "type": "address",
          "internalType": "address"
        }
      ],
      "stateMutability": "nonpayable"
    },
    {
      "type": "function",
      "name": "OWNERSHIP_TRANSFER_DELAY",
      "inputs": [],
      "outputs": [
        {
          "name": "",
          "type": "uint256",
          "internalType": "uint256"
        }
      ],
      "stateMutability": "view"
    },
    {
      "type": "function",
      "name": "acceptTransferOwnership",
      "inputs": [],
      "outputs": [],
      "stateMutability": "nonpayable"
    },
    {
      "type": "function",
      "name": "commitTransferOwnership",
      "inputs": [
        {
          "name": "newOwner",
          "type": "address",
          "internalType": "address"
        }
      ],
      "outputs": [],
      "stateMutability": "nonpayable"
    },
    {
      "type": "function",
      "name": "feeReceiver",
      "inputs": [],
      "outputs": [
        {
          "name": "",
          "type": "address",
          "internalType": "address"
        }
      ],
      "stateMutability": "view"
    },
    {
      "type": "function",
      "name": "guardian",
      "inputs": [],
      "outputs": [
        {
          "name": "",
          "type": "address",
          "internalType": "address"
        }
      ],
      "stateMutability": "view"
    },
    {
      "type": "function",
      "name": "keepers",
      "inputs": [],
      "outputs": [
        {
          "name": "",
          "type": "address",
          "internalType": "address"
        }
      ],
      "stateMutability": "view"
    },
    {
      "type": "function",
      "name": "owner",
      "inputs": [],
      "outputs": [
        {
          "name": "",
          "type": "address",
          "internalType": "address"
        }
      ],
      "stateMutability": "view"
    },
    {
      "type": "function",
      "name": "ownershipTransferDeadline",
      "inputs": [],
      "outputs": [
        {
          "name": "",
          "type": "uint256",
          "internalType": "uint256"
        }
      ],
      "stateMutability": "view"
    },
    {
      "type": "function",
      "name": "paused",
      "inputs": [],
      "outputs": [
        {
          "name": "",
          "type": "bool",
          "internalType": "bool"
        }
      ],
      "stateMutability": "view"
    },
    {
      "type": "function",
      "name": "pendingOwner",
      "inputs": [],
      "outputs": [
        {
          "name": "",
          "type": "address",
          "internalType": "address"
        }
      ],
      "stateMutability": "view"
    },
    {
      "type": "function",
      "name": "priceFeed",
      "inputs": [],
      "outputs": [
        {
          "name": "",
          "type": "address",
          "internalType": "address"
        }
      ],
      "stateMutability": "view"
    },
    {
      "type": "function",
      "name": "revokeTransferOwnership",
      "inputs": [],
      "outputs": [],
      "stateMutability": "nonpayable"
    },
    {
      "type": "function",
      "name": "setFeeReceiver",
      "inputs": [
        {
          "name": "_feeReceiver",
          "type": "address",
          "internalType": "address"
        }
      ],
      "outputs": [],
      "stateMutability": "nonpayable"
    },
    {
      "type": "function",
      "name": "setGuardian",
      "inputs": [
        {
          "name": "_guardian",
          "type": "address",
          "internalType": "address"
        }
      ],
      "outputs": [],
      "stateMutability": "nonpayable"
    },
    {
      "type": "function",
      "name": "setKeepers",
      "inputs": [
        {
          "name": "_keepers",
          "type": "address",
          "internalType": "address"
        }
      ],
      "outputs": [],
      "stateMutability": "nonpayable"
    },
    {
      "type": "function",
      "name": "setPaused",
      "inputs": [
        {
          "name": "_paused",
          "type": "bool",
          "internalType": "bool"
        }
      ],
      "outputs": [],
      "stateMutability": "nonpayable"
    },
    {
      "type": "function",
      "name": "setPriceFeed",
      "inputs": [
        {
          "name": "_priceFeed",
          "type": "address",
          "internalType": "address"
        }
      ],
      "outputs": [],
      "stateMutability": "nonpayable"
    },
    {
      "type": "function",
      "name": "startTime",
      "inputs": [],
      "outputs": [
        {
          "name": "",
          "type": "uint256",
          "internalType": "uint256"
        }
      ],
      "stateMutability": "view"
    },
    {
      "type": "event",
      "name": "FeeReceiverSet",
      "inputs": [
        {
          "name": "feeReceiver",
          "type": "address",
          "indexed": false,
          "internalType": "address"
        }
      ],
      "anonymous": false
    },
    {
      "type": "event",
      "name": "GuardianSet",
      "inputs": [
        {
          "name": "guardian",
          "type": "address",
          "indexed": false,
          "internalType": "address"
        }
      ],
      "anonymous": false
    },
    {
      "type": "event",
      "name": "KeepersSet",
      "inputs": [
        {
          "name": "keepers",
          "type": "address",
          "indexed": false,
          "internalType": "address"
        }
      ],
      "anonymous": false
    },
    {
      "type": "event",
      "name": "NewOwnerAccepted",
      "inputs": [
        {
          "name": "oldOwner",
          "type": "address",
          "indexed": false,
          "internalType": "address"
        },
        {
          "name": "owner",
          "type": "address",
          "indexed": false,
          "internalType": "address"
        }
      ],
      "anonymous": false
    },
    {
      "type": "event",
      "name": "NewOwnerCommitted",
      "inputs": [
        {
          "name": "owner",
          "type": "address",
          "indexed": false,
          "internalType": "address"
        },
        {
          "name": "pendingOwner",
          "type": "address",
          "indexed": false,
          "internalType": "address"
        },
        {
          "name": "deadline",
          "type": "uint256",
          "indexed": false,
          "internalType": "uint256"
        }
      ],
      "anonymous": false
    },
    {
      "type": "event",
      "name": "NewOwnerRevoked",
      "inputs": [
        {
          "name": "owner",
          "type": "address",
          "indexed": false,
          "internalType": "address"
        },
        {
          "name": "revokedOwner",
          "type": "address",
          "indexed": false,
          "internalType": "address"
        }
      ],
      "anonymous": false
    },
    {
      "type": "event",
      "name": "Paused",
      "inputs": [],
      "anonymous": false
    },
    {
      "type": "event",
      "name": "PriceFeedSet",
      "inputs": [
        {
          "name": "priceFeed",
          "type": "address",
          "indexed": false,
          "internalType": "address"
        }
      ],
      "anonymous": false
    },
    {
      "type": "event",
      "name": "Unpaused",
      "inputs": [],
      "anonymous": false
    }
  ],
  "bytecode": {
    "object": "0x60a060405234801561000f575f80fd5b50604051610ad5380380610ad583398101604081905261002e916101b9565b600280546001600160a01b0319166001600160a01b03871617905561005662093a804261021a565b6100639062093a80610239565b608052600580546001600160a01b038681166001600160a01b03199283168117909355600180548783169084161790555f805486831690841617905560068054918516919092161790556040519081527fe6c09ffe4572dc9ceaa5ddde4ae41befa655d6fdfe8052077af0970f700e942e9060200160405180910390a16040516001600160a01b03841681527f40d8738b990e6ff9a2f56f11247e657a1e7070472260b020a4fc3ab1844787bd9060200160405180910390a16040516001600160a01b03831681527fbdf37c276f641820b141429d245add2552b4118c0866e5a78638e3de5ef18d9d9060200160405180910390a16040516001600160a01b03821681527ffd74f991bf362411a6f3eedb24512172c950006cd343bd3ee6f386090f7a04d29060200160405180910390a15050505050610262565b80516001600160a01b03811681146101b4575f80fd5b919050565b5f805f805f60a086880312156101cd575f80fd5b6101d68661019e565b94506101e46020870161019e565b93506101f26040870161019e565b92506102006060870161019e565b915061020e6080870161019e565b90509295509295909350565b5f8261023457634e487b7160e01b5f52601260045260245ffd5b500490565b808202811582820484141761025c57634e487b7160e01b5f52601160045260245ffd5b92915050565b60805161085b61027a5f395f6101e5015261085b5ff3fe608060405234801561000f575f80fd5b5060043610610111575f3560e01c806378e979251161009e578063951dc22c1161006e578063951dc22c14610235578063b3f0067414610248578063e1cebf0b1461025a578063e30c39781461026d578063efdcd97414610280575f80fd5b806378e97925146101e05780637b371107146102075780638a0dac4a1461020f5780638da5cb5b14610222575f80fd5b80635c975abb116100e45780635c975abb146101845780636cd550cd146101a8578063724e78da146101b0578063741bef1a146101c35780637433ae7a146101d6575f80fd5b806315112f111461011557806316c38b3c14610131578063452a932014610146578063537fb74814610171575b5f80fd5b61011e60045481565b6040519081526020015b60405180910390f35b61014461013f366004610790565b610293565b005b600554610159906001600160a01b031681565b6040516001600160a01b039091168152602001610128565b61014461017f3660046107b6565b610377565b60065461019890600160a01b900460ff1681565b6040519015158152602001610128565b6101446103f6565b6101446101be3660046107b6565b61047b565b600154610159906001600160a01b031681565b61011e6203f48081565b61011e7f000000000000000000000000000000000000000000000000000000000000000081565b6101446104f3565b61014461021d3660046107b6565b6105f6565b600254610159906001600160a01b031681565b600654610159906001600160a01b031681565b5f54610159906001600160a01b031681565b6101446102683660046107b6565b61066e565b600354610159906001600160a01b031681565b61014461028e3660046107b6565b610719565b8080156102aa57506005546001600160a01b031633145b806102bf57506002546001600160a01b031633145b6102ff5760405162461bcd60e51b815260206004820152600c60248201526b155b985d5d1a1bdc9a5e995960a21b60448201526064015b60405180910390fd5b6006805482158015600160a01b0260ff60a01b199092169190911790915561034c576040517f9e87fac88ff661f02d44f95383c817fece4bce600a3dab7a54406878b965e752905f90a150565b6040517fa45f47fdea8a1efdd9029a5691c7f759c32b7c698632b563573e155625d16933905f90a150565b6002546001600160a01b031633146103a15760405162461bcd60e51b81526004016102f6906107dc565b600680546001600160a01b0319166001600160a01b0383169081179091556040519081527ffd74f991bf362411a6f3eedb24512172c950006cd343bd3ee6f386090f7a04d2906020015b60405180910390a150565b6002546001600160a01b031633146104205760405162461bcd60e51b81526004016102f6906107dc565b600354604080513381526001600160a01b0390921660208301527fd6176b30539d20b54c946c7ca9dca5950b2f1090fc2bfc55cc77a4025a8a78ae910160405180910390a1600380546001600160a01b03191690555f600455565b6002546001600160a01b031633146104a55760405162461bcd60e51b81526004016102f6906107dc565b600180546001600160a01b0319166001600160a01b0383169081179091556040519081527f40d8738b990e6ff9a2f56f11247e657a1e7070472260b020a4fc3ab1844787bd906020016103eb565b6003546001600160a01b0316331461053e5760405162461bcd60e51b815260206004820152600e60248201526d27b7363c903732bb9037bbb732b960911b60448201526064016102f6565b6004544210156105865760405162461bcd60e51b8152602060048201526013602482015272111958591b1a5b99481b9bdd081c185cdcd959606a1b60448201526064016102f6565b600254604080516001600160a01b0390921682523360208301527f5cd6b24c0149d980c82592262b3a81294b39f8f6e3c004126aaf0828c787d554910160405180910390a160038054600280546001600160a01b03199081166001600160a01b038416179091551690555f600455565b6002546001600160a01b031633146106205760405162461bcd60e51b81526004016102f6906107dc565b600580546001600160a01b0319166001600160a01b0383169081179091556040519081527fe6c09ffe4572dc9ceaa5ddde4ae41befa655d6fdfe8052077af0970f700e942e906020016103eb565b6002546001600160a01b031633146106985760405162461bcd60e51b81526004016102f6906107dc565b600380546001600160a01b0319166001600160a01b0383161790556106c06203f48042610800565b6004557f4c743940588d40b308f73f5275a4e608b25c5374f40e4839fb00467e238acfac33826106f36203f48042610800565b604080516001600160a01b039485168152939092166020840152908201526060016103eb565b6002546001600160a01b031633146107435760405162461bcd60e51b81526004016102f6906107dc565b5f80546001600160a01b0319166001600160a01b0383169081179091556040519081527fbdf37c276f641820b141429d245add2552b4118c0866e5a78638e3de5ef18d9d906020016103eb565b5f602082840312156107a0575f80fd5b813580151581146107af575f80fd5b9392505050565b5f602082840312156107c6575f80fd5b81356001600160a01b03811681146107af575f80fd5b6020808252600a908201526927b7363c9037bbb732b960b11b604082015260600190565b8082018082111561081f57634e487b7160e01b5f52601160045260245ffd5b9291505056fea26469706673582212202deed03dfa33580692f43ccf5d8c39e7ae213b2f0928a0ccbb81eb3744fc309c64736f6c63430008180033",
    "linkReferences": {}
  },
  "methodIdentifiers": {
    "OWNERSHIP_TRANSFER_DELAY()": "7433ae7a",
    "acceptTransferOwnership()": "7b371107",
    "commitTransferOwnership(address)": "e1cebf0b",
    "feeReceiver()": "b3f00674",
    "guardian()": "452a9320",
    "keepers()": "951dc22c",
    "owner()": "8da5cb5b",
    "ownershipTransferDeadline()": "15112f11",
    "paused()": "5c975abb",
    "pendingOwner()": "e30c3978",
    "priceFeed()": "741bef1a",
    "revokeTransferOwnership()": "6cd550cd",
    "setFeeReceiver(address)": "efdcd974",
    "setGuardian(address)": "8a0dac4a",
    "setKeepers(address)": "537fb748",
    "setPaused(bool)": "16c38b3c",
    "setPriceFeed(address)": "724e78da",
    "startTime()": "78e97925"
  },
  "id": 56
}