{
  "abi": [
    {
      "type": "constructor",
      "inputs": [
        {
          "name": "_prismaCore",
          "type": "address",
          "internalType": "address"
        },
        {
          "name": "_debtTokenAddress",
          "type": "address",
          "internalType": "address"
        },
        {
          "name": "_factory",
          "type": "address",
          "internalType": "address"
        },
        {
          "name": "_minNetDebt",
          "type": "uint256",
          "internalType": "uint256"
        }
      ],
      "stateMutability": "nonpayable"
    },
    {
      "type": "function",
      "name": "CCR",
      "inputs": [],
      "outputs": [
        {
          "name": "",
          "type": "uint256",
          "internalType": "uint256"
        }
      ],
      "stateMutability": "view"
    },
    {
      "type": "function",
      "name": "DECIMAL_PRECISION",
      "inputs": [],
      "outputs": [
        {
          "name": "",
          "type": "uint256",
          "internalType": "uint256"
        }
      ],
      "stateMutability": "view"
    },
    {
      "type": "function",
      "name": "PRISMA_CORE",
      "inputs": [],
      "outputs": [
        {
          "name": "",
          "type": "address",
          "internalType": "contract IPrismaCore"
        }
      ],
      "stateMutability": "view"
    },
    {
      "type": "function",
      "name": "addColl",
      "inputs": [
        {
          "name": "troveManager",
          "type": "address",
          "internalType": "contract ITroveManager"
        },
        {
          "name": "account",
          "type": "address",
          "internalType": "address"
        },
        {
          "name": "_collateralAmount",
          "type": "uint256",
          "internalType": "uint256"
        },
        {
          "name": "_upperHint",
          "type": "address",
          "internalType": "address"
        },
        {
          "name": "_lowerHint",
          "type": "address",
          "internalType": "address"
        }
      ],
      "outputs": [],
      "stateMutability": "nonpayable"
    },
    {
      "type": "function",
      "name": "adjustTrove",
      "inputs": [
        {
          "name": "troveManager",
          "type": "address",
          "internalType": "contract ITroveManager"
        },
        {
          "name": "account",
          "type": "address",
          "internalType": "address"
        },
        {
          "name": "_maxFeePercentage",
          "type": "uint256",
          "internalType": "uint256"
        },
        {
          "name": "_collDeposit",
          "type": "uint256",
          "internalType": "uint256"
        },
        {
          "name": "_collWithdrawal",
          "type": "uint256",
          "internalType": "uint256"
        },
        {
          "name": "_debtChange",
          "type": "uint256",
          "internalType": "uint256"
        },
        {
          "name": "_isDebtIncrease",
          "type": "bool",
          "internalType": "bool"
        },
        {
          "name": "_upperHint",
          "type": "address",
          "internalType": "address"
        },
        {
          "name": "_lowerHint",
          "type": "address",
          "internalType": "address"
        }
      ],
      "outputs": [],
      "stateMutability": "nonpayable"
    },
    {
      "type": "function",
      "name": "checkRecoveryMode",
      "inputs": [
        {
          "name": "TCR",
          "type": "uint256",
          "internalType": "uint256"
        }
      ],
      "outputs": [
        {
          "name": "",
          "type": "bool",
          "internalType": "bool"
        }
      ],
      "stateMutability": "pure"
    },
    {
      "type": "function",
      "name": "closeTrove",
      "inputs": [
        {
          "name": "troveManager",
          "type": "address",
          "internalType": "contract ITroveManager"
        },
        {
          "name": "account",
          "type": "address",
          "internalType": "address"
        }
      ],
      "outputs": [],
      "stateMutability": "nonpayable"
    },
    {
      "type": "function",
      "name": "configureCollateral",
      "inputs": [
        {
          "name": "troveManager",
          "type": "address",
          "internalType": "contract ITroveManager"
        },
        {
          "name": "collateralToken",
          "type": "address",
          "internalType": "contract IERC20"
        }
      ],
      "outputs": [],
      "stateMutability": "nonpayable"
    },
    {
      "type": "function",
      "name": "debtToken",
      "inputs": [],
      "outputs": [
        {
          "name": "",
          "type": "address",
          "internalType": "contract IDebtToken"
        }
      ],
      "stateMutability": "view"
    },
    {
      "type": "function",
      "name": "factory",
      "inputs": [],
      "outputs": [
        {
          "name": "",
          "type": "address",
          "internalType": "address"
        }
      ],
      "stateMutability": "view"
    },
    {
      "type": "function",
      "name": "fetchBalances",
      "inputs": [],
      "outputs": [
        {
          "name": "balances",
          "type": "tuple",
          "internalType": "struct BorrowerOperations.SystemBalances",
          "components": [
            {
              "name": "collaterals",
              "type": "uint256[]",
              "internalType": "uint256[]"
            },
            {
              "name": "debts",
              "type": "uint256[]",
              "internalType": "uint256[]"
            },
            {
              "name": "prices",
              "type": "uint256[]",
              "internalType": "uint256[]"
            }
          ]
        }
      ],
      "stateMutability": "nonpayable"
    },
    {
      "type": "function",
      "name": "getGlobalSystemBalances",
      "inputs": [],
      "outputs": [
        {
          "name": "totalPricedCollateral",
          "type": "uint256",
          "internalType": "uint256"
        },
        {
          "name": "totalDebt",
          "type": "uint256",
          "internalType": "uint256"
        }
      ],
      "stateMutability": "nonpayable"
    },
    {
      "type": "function",
      "name": "getTCR",
      "inputs": [],
      "outputs": [
        {
          "name": "globalTotalCollateralRatio",
          "type": "uint256",
          "internalType": "uint256"
        }
      ],
      "stateMutability": "nonpayable"
    },
    {
      "type": "function",
      "name": "guardian",
      "inputs": [],
      "outputs": [
        {
          "name": "",
          "type": "address",
          "internalType": "address"
        }
      ],
      "stateMutability": "view"
    },
    {
      "type": "function",
      "name": "isApprovedDelegate",
      "inputs": [
        {
          "name": "owner",
          "type": "address",
          "internalType": "address"
        },
        {
          "name": "caller",
          "type": "address",
          "internalType": "address"
        }
      ],
      "outputs": [
        {
          "name": "isApproved",
          "type": "bool",
          "internalType": "bool"
        }
      ],
      "stateMutability": "view"
    },
    {
      "type": "function",
      "name": "minNetDebt",
      "inputs": [],
      "outputs": [
        {
          "name": "",
          "type": "uint256",
          "internalType": "uint256"
        }
      ],
      "stateMutability": "view"
    },
    {
      "type": "function",
      "name": "openTrove",
      "inputs": [
        {
          "name": "troveManager",
          "type": "address",
          "internalType": "contract ITroveManager"
        },
        {
          "name": "account",
          "type": "address",
          "internalType": "address"
        },
        {
          "name": "_maxFeePercentage",
          "type": "uint256",
          "internalType": "uint256"
        },
        {
          "name": "_collateralAmount",
          "type": "uint256",
          "internalType": "uint256"
        },
        {
          "name": "_debtAmount",
          "type": "uint256",
          "internalType": "uint256"
        },
        {
          "name": "_upperHint",
          "type": "address",
          "internalType": "address"
        },
        {
          "name": "_lowerHint",
          "type": "address",
          "internalType": "address"
        }
      ],
      "outputs": [],
      "stateMutability": "nonpayable"
    },
    {
      "type": "function",
      "name": "owner",
      "inputs": [],
      "outputs": [
        {
          "name": "",
          "type": "address",
          "internalType": "address"
        }
      ],
      "stateMutability": "view"
    },
    {
      "type": "function",
      "name": "removeTroveManager",
      "inputs": [
        {
          "name": "troveManager",
          "type": "address",
          "internalType": "contract ITroveManager"
        }
      ],
      "outputs": [],
      "stateMutability": "nonpayable"
    },
    {
      "type": "function",
      "name": "repayDebt",
      "inputs": [
        {
          "name": "troveManager",
          "type": "address",
          "internalType": "contract ITroveManager"
        },
        {
          "name": "account",
          "type": "address",
          "internalType": "address"
        },
        {
          "name": "_debtAmount",
          "type": "uint256",
          "internalType": "uint256"
        },
        {
          "name": "_upperHint",
          "type": "address",
          "internalType": "address"
        },
        {
          "name": "_lowerHint",
          "type": "address",
          "internalType": "address"
        }
      ],
      "outputs": [],
      "stateMutability": "nonpayable"
    },
    {
      "type": "function",
      "name": "setDelegateApproval",
      "inputs": [
        {
          "name": "_delegate",
          "type": "address",
          "internalType": "address"
        },
        {
          "name": "_isApproved",
          "type": "bool",
          "internalType": "bool"
        }
      ],
      "outputs": [],
      "stateMutability": "nonpayable"
    },
    {
      "type": "function",
      "name": "setMinNetDebt",
      "inputs": [
        {
          "name": "_minNetDebt",
          "type": "uint256",
          "internalType": "uint256"
        }
      ],
      "outputs": [],
      "stateMutability": "nonpayable"
    },
    {
      "type": "function",
      "name": "troveManagersData",
      "inputs": [
        {
          "name": "",
          "type": "address",
          "internalType": "contract ITroveManager"
        }
      ],
      "outputs": [
        {
          "name": "collateralToken",
          "type": "address",
          "internalType": "contract IERC20"
        },
        {
          "name": "index",
          "type": "uint16",
          "internalType": "uint16"
        }
      ],
      "stateMutability": "view"
    },
    {
      "type": "function",
      "name": "withdrawColl",
      "inputs": [
        {
          "name": "troveManager",
          "type": "address",
          "internalType": "contract ITroveManager"
        },
        {
          "name": "account",
          "type": "address",
          "internalType": "address"
        },
        {
          "name": "_collWithdrawal",
          "type": "uint256",
          "internalType": "uint256"
        },
        {
          "name": "_upperHint",
          "type": "address",
          "internalType": "address"
        },
        {
          "name": "_lowerHint",
          "type": "address",
          "internalType": "address"
        }
      ],
      "outputs": [],
      "stateMutability": "nonpayable"
    },
    {
      "type": "function",
      "name": "withdrawDebt",
      "inputs": [
        {
          "name": "troveManager",
          "type": "address",
          "internalType": "contract ITroveManager"
        },
        {
          "name": "account",
          "type": "address",
          "internalType": "address"
        },
        {
          "name": "_maxFeePercentage",
          "type": "uint256",
          "internalType": "uint256"
        },
        {
          "name": "_debtAmount",
          "type": "uint256",
          "internalType": "uint256"
        },
        {
          "name": "_upperHint",
          "type": "address",
          "internalType": "address"
        },
        {
          "name": "_lowerHint",
          "type": "address",
          "internalType": "address"
        }
      ],
      "outputs": [],
      "stateMutability": "nonpayable"
    },
    {
      "type": "event",
      "name": "BorrowingFeePaid",
      "inputs": [
        {
          "name": "borrower",
          "type": "address",
          "indexed": true,
          "internalType": "address"
        },
        {
          "name": "collateralToken",
          "type": "address",
          "indexed": false,
          "internalType": "contract IERC20"
        },
        {
          "name": "amount",
          "type": "uint256",
          "indexed": false,
          "internalType": "uint256"
        }
      ],
      "anonymous": false
    },
    {
      "type": "event",
      "name": "CollateralConfigured",
      "inputs": [
        {
          "name": "troveManager",
          "type": "address",
          "indexed": false,
          "internalType": "contract ITroveManager"
        },
        {
          "name": "collateralToken",
          "type": "address",
          "indexed": false,
          "internalType": "contract IERC20"
        }
      ],
      "anonymous": false
    },
    {
      "type": "event",
      "name": "DelegateApprovalSet",
      "inputs": [
        {
          "name": "caller",
          "type": "address",
          "indexed": true,
          "internalType": "address"
        },
        {
          "name": "delegate",
          "type": "address",
          "indexed": true,
          "internalType": "address"
        },
        {
          "name": "isApproved",
          "type": "bool",
          "indexed": false,
          "internalType": "bool"
        }
      ],
      "anonymous": false
    },
    {
      "type": "event",
      "name": "TroveManagerRemoved",
      "inputs": [
        {
          "name": "troveManager",
          "type": "address",
          "indexed": false,
          "internalType": "contract ITroveManager"
        }
      ],
      "anonymous": false
    },
    {
      "type": "error",
      "name": "AddressEmptyCode",
      "inputs": [
        {
          "name": "target",
          "type": "address",
          "internalType": "address"
        }
      ]
    },
    {
      "type": "error",
      "name": "AddressInsufficientBalance",
      "inputs": [
        {
          "name": "account",
          "type": "address",
          "internalType": "address"
        }
      ]
    },
    {
      "type": "error",
      "name": "FailedInnerCall",
      "inputs": []
    },
    {
      "type": "error",
      "name": "SafeERC20FailedOperation",
      "inputs": [
        {
          "name": "token",
          "type": "address",
          "internalType": "address"
        }
      ]
    }
  ],
  "bytecode": {
    "object": "0x60e06040523480156200001157600080fd5b5060405162002ef038038062002ef0833981016040819052620000349162000092565b6001600160a01b0380851660805283811660a052821660c052620000588162000062565b50505050620000e4565b600081116200007057600080fd5b600155565b80516001600160a01b03811681146200008d57600080fd5b919050565b60008060008060808587031215620000a957600080fd5b620000b48562000075565b9350620000c46020860162000075565b9250620000d46040860162000075565b6060959095015193969295505050565b60805160a05160c051612d8862000168600039600081816103610152610c3a0152600081816103d5015281816107f101528181610bd30152611a2c01526000818161039b0152818161046a015281816108650152818161094201528181610d710152818161115201528181611307015281816117820152611a5b0152612d886000f3fe608060405234801561001057600080fd5b50600436106101735760003560e01c8063a20baee6116100de578063c3c854b611610097578063cc9641a811610071578063cc9641a814610396578063e19c80c2146103bd578063f8d89898146103d0578063fded3d35146103f757600080fd5b8063c3c854b614610349578063c45a01551461035c578063c5a62a991461038357600080fd5b8063a20baee6146102e4578063a2e8dc0a146102f3578063a6b6c8ee14610306578063b51237a914610319578063b620115d1461032e578063c2af1eca1461033657600080fd5b80635733d58f116101305780635733d58f146102735780635f54861414610290578063716c53c2146102a3578063778c5c64146102c05780638da5cb5b146102d3578063969c2452146102db57600080fd5b806311c61ad3146101785780631930e8251461018d578063438d641a146101cd578063452a9320146101e05780634e443d9e14610200578063568d6fe51461021b575b600080fd5b61018b610186366004612865565b61040a565b005b6101b861019b3660046128e0565b600060208181529281526040808220909352908152205460ff1681565b60405190151581526020015b60405180910390f35b61018b6101db366004612919565b610863565b6101e861093e565b6040516001600160a01b0390911681526020016101c4565b6101b861020e366004612919565b6714d1120d7b1600001190565b610251610229366004612932565b6002602052600090815260409020546001600160a01b03811690600160a01b900461ffff1682565b604080516001600160a01b03909316835261ffff9091166020830152016101c4565b6102826714d1120d7b16000081565b6040519081526020016101c4565b61018b61029e3660046128e0565b6109c7565b6102ab610c0c565b604080519283526020830191909152016101c4565b61018b6102ce3660046128e0565b610c2f565b6101e8610d6d565b61028260015481565b610282670de0b6b3a764000081565b61018b61030136600461294f565b610dcd565b61018b61031436600461294f565b610e3e565b610321610ea6565b6040516101c491906129f3565b6102826110dc565b61018b610344366004612a54565b6110fb565b61018b610357366004612ad2565b611234565b6101e87f000000000000000000000000000000000000000000000000000000000000000081565b61018b610391366004612b00565b61129e565b6101e87f000000000000000000000000000000000000000000000000000000000000000081565b61018b6103cb366004612932565b611462565b6101e87f000000000000000000000000000000000000000000000000000000000000000081565b61018b61040536600461294f565b61172b565b85336001600160a01b038216148061044357506001600160a01b03811660009081526020818152604080832033845290915290205460ff165b6104685760405162461bcd60e51b815260040161045f90612b98565b60405180910390fd5b7f00000000000000000000000000000000000000000000000000000000000000006001600160a01b0316635c975abb6040518163ffffffff1660e01b8152600401602060405180830381865afa1580156104c6573d6000803e3d6000fd5b505050506040513d601f19601f820116820180604052508101906104ea9190612bc7565b1561052d5760405162461bcd60e51b815260206004820152601360248201527211195c1bdcda5d1cc8185c99481c185d5cd959606a1b604482015260640161045f565b600061056f6040518060e00160405280600081526020016000815260200160008152602001600081526020016000815260200160008152602001600081525090565b600061057a8b611863565b60408701919091526020860191909152908452909350905061059b8961193a565b868260600181815250508a6001600160a01b031663012031126040518163ffffffff1660e01b8152600401602060405180830381865afa1580156105e3573d6000803e3d6000fd5b505050506040513d601f19601f820116820180604052508101906106079190612bc7565b8015610611575080155b15610638576106238b848c8c8b6119ad565b826060018181516106349190612bfa565b9052505b6106458260600151611b8b565b6106588883606001518460000151611c03565b60808301528015610675576106708260800151611c37565b61071e565b6106e482608001518c6001600160a01b031663794e57246040518163ffffffff1660e01b8152600401602060405180830381865afa1580156106bb573d6000803e3d6000fd5b505050506040513d601f19601f820116820180604052508101906106df9190612c0d565b611cb5565b60006107118360200151846040015185600001518c6107039190612c26565b600187606001516001611d41565b905061071c81611d9b565b505b6060820151604051634adc8d4360e01b81526001600160a01b038c81166004830152602482018b905260448201929092528782166064820152868216608482015282151560a4820152908c1690634adc8d439060c40160408051808303816000875af1158015610792573d6000803e3d6000fd5b505050506040513d601f19601f820116820180604052508101906107b69190612c3d565b60c084015260a08301526107d56001600160a01b038416338d8b611e2b565b6040516340c10f1960e01b8152336004820152602481018890527f00000000000000000000000000000000000000000000000000000000000000006001600160a01b0316906340c10f19906044015b600060405180830381600087803b15801561083e57600080fd5b505af1158015610852573d6000803e3d6000fd5b505050505050505050505050505050565b7f00000000000000000000000000000000000000000000000000000000000000006001600160a01b0316638da5cb5b6040518163ffffffff1660e01b8152600401602060405180830381865afa1580156108c1573d6000803e3d6000fd5b505050506040513d601f19601f820116820180604052508101906108e59190612c61565b6001600160a01b0316336001600160a01b0316146109325760405162461bcd60e51b815260206004820152600a60248201526927b7363c9037bbb732b960b11b604482015260640161045f565b61093b81611e8b565b50565b60007f00000000000000000000000000000000000000000000000000000000000000006001600160a01b031663452a93206040518163ffffffff1660e01b8152600401602060405180830381865afa15801561099e573d6000803e3d6000fd5b505050506040513d601f19601f820116820180604052508101906109c29190612c61565b905090565b80336001600160a01b0382161480610a0057506001600160a01b03811660009081526020818152604080832033845290915290205460ff165b610a1c5760405162461bcd60e51b815260040161045f90612b98565b6000806000806000610a2d88611863565b93985091965091945090925090508215610aaf5760405162461bcd60e51b815260206004820152603960248201527f426f72726f7765724f70733a204f7065726174696f6e206e6f74207065726d6960448201527f7474656420647572696e67205265636f76657279204d6f646500000000000000606482015260840161045f565b604051630b07655760e01b81526001600160a01b03888116600483015260009182918b1690630b0765579060240160408051808303816000875af1158015610afb573d6000803e3d6000fd5b505050506040513d601f19601f82011682018060405250810190610b1f9190612c3d565b90925090506000610b3f8585610b358a87612c26565b6000866000611d41565b9050610b4a81611d9b565b60405163c9a4cbf160e01b81526001600160a01b038b8116600483015233602483015260448201859052606482018490528c169063c9a4cbf190608401600060405180830381600087803b158015610ba157600080fd5b505af1158015610bb5573d6000803e3d6000fd5b5050604051632770a7eb60e21b8152336004820152602481018590527f00000000000000000000000000000000000000000000000000000000000000006001600160a01b03169250639dc29fac9150604401610824565b6000806000610c19610ea6565b9050610c2481611e9d565b909590945092505050565b336001600160a01b037f00000000000000000000000000000000000000000000000000000000000000001614610c925760405162461bcd60e51b815260206004820152600860248201526721666163746f727960c01b604482015260640161045f565b6040805180820182526001600160a01b038381168083526003805461ffff9081166020808701918252898616600081815260028352898120985189549451909516600160a01b026001600160b01b03199094169490971693909317919091179095558154600181018355919093527fc2575a0e9e593c00f959f8c92f12db2869c3395a3b0502d05e2516446f71f85b0180546001600160a01b031916831790558351918252918101919091527ff6e0528dc0c0ef50525339faff44940d57e7897bee18b67dd0aa23bba1749ad2910160405180910390a15050565b60007f00000000000000000000000000000000000000000000000000000000000000006001600160a01b0316638da5cb5b6040518163ffffffff1660e01b8152600401602060405180830381865afa15801561099e573d6000803e3d6000fd5b83336001600160a01b0382161480610e0657506001600160a01b03811660009081526020818152604080832033845290915290205460ff165b610e225760405162461bcd60e51b815260040161045f90612b98565b610e36868660008060008960008a8a611f4b565b505050505050565b83336001600160a01b0382161480610e7757506001600160a01b03811660009081526020818152604080832033845290915290205460ff165b610e935760405162461bcd60e51b815260040161045f90612b98565b610e368686600080886000808a8a611f4b565b610eca60405180606001604052806060815260200160608152602001606081525090565b6003546040805160608101909152808267ffffffffffffffff811115610ef257610ef2612c7e565b604051908082528060200260200182016040528015610f1b578160200160208202803683370190505b5081526020018267ffffffffffffffff811115610f3a57610f3a612c7e565b604051908082528060200260200182016040528015610f63578160200160208202803683370190505b5081526020018267ffffffffffffffff811115610f8257610f82612c7e565b604051908082528060200260200182016040528015610fab578160200160208202803683370190505b509052915060005b818110156110d757600060038281548110610fd057610fd0612c94565b9060005260206000200160009054906101000a90046001600160a01b031690506000806000836001600160a01b03166301c799fc6040518163ffffffff1660e01b81526004016060604051808303816000875af1158015611035573d6000803e3d6000fd5b505050506040513d601f19601f820116820180604052508101906110599190612caa565b925092509250828760000151868151811061107657611076612c94565b602002602001018181525050818760200151868151811061109957611099612c94565b60200260200101818152505080876040015186815181106110bc576110bc612c94565b60200260200101818152505084600101945050505050610fb3565b505090565b6000806110e7610ea6565b90506110f281611e9d565b50909392505050565b84336001600160a01b038216148061113457506001600160a01b03811660009081526020818152604080832033845290915290205460ff165b6111505760405162461bcd60e51b815260040161045f90612b98565b7f00000000000000000000000000000000000000000000000000000000000000006001600160a01b0316635c975abb6040518163ffffffff1660e01b8152600401602060405180830381865afa1580156111ae573d6000803e3d6000fd5b505050506040513d601f19601f820116820180604052508101906111d29190612bc7565b156112185760405162461bcd60e51b815260206004820152601660248201527515da5d1a191c985dd85b1cc8185c99481c185d5cd95960521b604482015260640161045f565b61122b8787876000808960018a8a611f4b565b50505050505050565b336000818152602081815260408083206001600160a01b03871680855290835292819020805460ff191686151590811790915590519081529192917f92d241afb0a1a9b3441bf1bd6bea0f9164cf5a2562cbe4bcc34ab943b2465608910160405180910390a35050565b87336001600160a01b03821614806112d757506001600160a01b03811660009081526020818152604080832033845290915290205460ff165b6112f35760405162461bcd60e51b815260040161045f90612b98565b861580156112ff575083155b8061138957507f00000000000000000000000000000000000000000000000000000000000000006001600160a01b0316635c975abb6040518163ffffffff1660e01b8152600401602060405180830381865afa158015611363573d6000803e3d6000fd5b505050506040513d601f19601f820116820180604052508101906113879190612bc7565b155b6113d55760405162461bcd60e51b815260206004820152601c60248201527f54726f76652061646a7573746d656e7473206172652070617573656400000000604482015260640161045f565b8615806113e0575085155b6114455760405162461bcd60e51b815260206004820152603060248201527f426f72726f7765724f7065726174696f6e733a2043616e6e6f7420776974686460448201526f1c985dc8185b99081859190818dbdb1b60821b606482015260840161045f565b6114568a8a8a8a8a8a8a8a8a611f4b565b50505050505050505050565b6001600160a01b03818116600090815260026020908152604091829020825180840190935254928316808352600160a01b90930461ffff1690820152901580159061150a5750816001600160a01b0316639484fb8e6040518163ffffffff1660e01b8152600401602060405180830381865afa1580156114e6573d6000803e3d6000fd5b505050506040513d601f19601f8201168201806040525081019061150a9190612bc7565b80156115755750816001600160a01b031663795d26c36040518163ffffffff1660e01b8152600401602060405180830381865afa15801561154f573d6000803e3d6000fd5b505050506040513d601f19601f820116820180604052508101906115739190612c0d565b155b6115c15760405162461bcd60e51b815260206004820152601f60248201527f54726f7665204d616e616765722063616e6e6f742062652072656d6f76656400604482015260640161045f565b6001600160a01b038216600090815260026020526040812080546001600160b01b03191690556003546115f690600190612cd8565b905080826020015161ffff1610156116b45760006003828154811061161d5761161d612c94565b9060005260206000200160009054906101000a90046001600160a01b03169050806003846020015161ffff168154811061165957611659612c94565b6000918252602080832090910180546001600160a01b039485166001600160a01b031990911617905585810151939092168152600290915260409020805461ffff909216600160a01b0261ffff60a01b199092169190911790555b60038054806116c5576116c5612ceb565b6000828152602090819020600019908301810180546001600160a01b03191690559091019091556040516001600160a01b03851681527fe44bbef3bc872937d7daf489db0badffc044d1813a027aea391838c546514303910160405180910390a1505050565b83336001600160a01b038216148061176457506001600160a01b03811660009081526020818152604080832033845290915290205460ff165b6117805760405162461bcd60e51b815260040161045f90612b98565b7f00000000000000000000000000000000000000000000000000000000000000006001600160a01b0316635c975abb6040518163ffffffff1660e01b8152600401602060405180830381865afa1580156117de573d6000803e3d6000fd5b505050506040513d601f19601f820116820180604052508101906118029190612bc7565b1561184f5760405162461bcd60e51b815260206004820152601c60248201527f54726f76652061646a7573746d656e7473206172652070617573656400000000604482015260640161045f565b610e36868660008760008060008a8a611f4b565b6001600160a01b03818116600090815260026020526040812080549283169282918291829190600160a01b900461ffff16866118da5760405162461bcd60e51b815260206004820152601660248201527510dbdb1b185d195c985b081b9bdd08195b98589b195960521b604482015260640161045f565b6000806118e5610ea6565b90506118f081611e9d565b90985096509150611908826714d1120d7b1600001190565b9450888160400151848151811061192157611921612c94565b6020026020010151985098505050505091939590929450565b670de0b6b3a764000081111561093b5760405162461bcd60e51b815260206004820152603260248201527f4d6178206665652070657263656e74616765206d757374206c657373207468616044820152716e206f7220657175616c20746f203130302560701b606482015260840161045f565b60405163b2f29d7b60e01b81526004810182905260009081906001600160a01b0388169063b2f29d7b906024016020604051808303816000875af11580156119f9573d6000803e3d6000fd5b505050506040513d601f19601f82011682018060405250810190611a1d9190612c0d565b9050611a2a8184866123d4565b7f00000000000000000000000000000000000000000000000000000000000000006001600160a01b03166340c10f197f00000000000000000000000000000000000000000000000000000000000000006001600160a01b031663b3f006746040518163ffffffff1660e01b8152600401602060405180830381865afa158015611ab7573d6000803e3d6000fd5b505050506040513d601f19601f82011682018060405250810190611adb9190612c61565b6040516001600160e01b031960e084901b1681526001600160a01b03909116600482015260248101849052604401600060405180830381600087803b158015611b2357600080fd5b505af1158015611b37573d6000803e3d6000fd5b5050604080516001600160a01b038a8116825260208201869052891693507fd89359f0d8e7f936d0682c5565cc5a16989a91560a80c7b06c46c28e52a5d43a92500160405180910390a29695505050505050565b60015481101561093b5760405162461bcd60e51b815260206004820152603a60248201527f426f72726f7765724f70733a2054726f76652773206e65742064656274206d7560448201527f73742062652067726561746572207468616e206d696e696d756d000000000000606482015260840161045f565b60008215611c2b57600083611c188487612c26565b611c229190612d01565b9150611c309050565b506000195b9392505050565b6714d1120d7b16000081101561093b5760405162461bcd60e51b815260206004820152603760248201527f426f72726f7765724f70733a204f7065726174696f6e206d757374206c65617660448201527f652074726f7665207769746820494352203e3d20434352000000000000000000606482015260840161045f565b80821015611d3d5760405162461bcd60e51b815260206004820152604960248201527f426f72726f7765724f70733a20416e206f7065726174696f6e2074686174207760448201527f6f756c6420726573756c7420696e20494352203c204d4352206973206e6f74206064820152681c195c9b5a5d1d195960ba1b608482015260a40161045f565b5050565b600081611d5757611d528387612cd8565b611d61565b611d618387612bfa565b955083611d7757611d728588612cd8565b611d81565b611d818588612bfa565b96506000611d8f8888612445565b98975050505050505050565b6714d1120d7b16000081101561093b5760405162461bcd60e51b815260206004820152604960248201527f426f72726f7765724f70733a20416e206f7065726174696f6e2074686174207760448201527f6f756c6420726573756c7420696e20544352203c20434352206973206e6f74206064820152681c195c9b5a5d1d195960ba1b608482015260a40161045f565b604080516001600160a01b0385811660248301528416604482015260648082018490528251808303909101815260849091019091526020810180516001600160e01b03166323b872dd60e01b179052611e8590859061246d565b50505050565b60008111611e9857600080fd5b600155565b80515160009081908190815b81811015611f365785604001518181518110611ec757611ec7612c94565b602002602001015186600001518281518110611ee557611ee5612c94565b6020026020010151611ef79190612c26565b611f019085612bfa565b935085602001518181518110611f1957611f19612c94565b602002602001015183611f2c9190612bfa565b9250600101611ea9565b50611f418383612445565b9350509193909250565b85151580611f5857508415155b80611f6257508315155b611fe35760405162461bcd60e51b815260206004820152604660248201527f426f72726f7765724f70733a205468657265206d75737420626520656974686560448201527f72206120636f6c6c61746572616c206368616e6765206f7220612064656274206064820152656368616e676560d01b608482015260a40161045f565b600061204d604051806101600160405280600081526020016000815260200160008152602001600081526020016000815260200160001515815260200160008152602001600081526020016000815260200160006001600160a01b03168152602001600081525090565b60006120588c611863565b60408781019290925260208701929092529185529051630b07655760e01b81526001600160a01b038e81166004830152929550909250908d1690630b0765579060240160408051808303816000875af11580156120b9573d6000803e3d6000fd5b505050506040513d601f19601f820116820180604052508101906120dd9190612c3d565b60c084015260e08301526120f189896124d5565b151560a084015260608301526080820187905261010082018790526001600160a01b03808c1661012084015260408051631e5395c960e21b81529051918e169163794e5724916004808201926020929091908290030181865afa15801561215c573d6000803e3d6000fd5b505050506040513d601f19601f820116820180604052508101906121809190612c0d565b610140830152851561229e57600087116122025760405162461bcd60e51b815260206004820152603760248201527f426f72726f7765724f70733a204465627420696e63726561736520726571756960448201527f726573206e6f6e2d7a65726f20646562744368616e6765000000000000000000606482015260840161045f565b61220b8a61193a565b8b6001600160a01b031663012031126040518163ffffffff1660e01b8152600401602060405180830381865afa158015612249573d6000803e3d6000fd5b505050506040513d601f19601f8201168201806040525081019061226d9190612bc7565b8015612277575080155b1561229e576122898c84338d8b6119ad565b8260800181815161229a9190612bfa565b9052505b6122b482602001518360400151838b8a876124f4565b851580156122c25750600087115b156122e3576122e382608001518360c001516122de9190612cd8565b611b8b565b8160a001511561230a57606082015161230a906001600160a01b0385169033908f90611e2b565b610100820151608083015160a084015160608501516101208601516040516311c82bd560e31b815286151560048201528b1515602482015260448101959095526064850193909352901515608484015260a48301526001600160a01b0387811660c484015286811660e4840152908116610104830152336101248301528d1690638e415ea89061014401600060405180830381600087803b1580156123ae57600080fd5b505af11580156123c2573d6000803e3d6000fd5b50505050505050505050505050505050565b6000826123e9670de0b6b3a764000086612c26565b6123f39190612d01565b905081811115611e855760405162461bcd60e51b815260206004820152601d60248201527f4665652065786365656465642070726f7669646564206d6178696d756d000000604482015260640161045f565b600081156124625760006124598385612d01565b91506124679050565b506000195b92915050565b60006124826001600160a01b03841683612623565b905080516000141580156124a75750808060200190518101906124a59190612bc7565b155b156124d057604051635274afe760e01b81526001600160a01b038416600482015260240161045f565b505050565b60008083156124e9575082905060016124ed565b8291505b9250929050565b600061250d8260e001518360c001518460000151611c03565b905060006125388360e001518460c0015185606001518660a001518760800151898960000151612631565b905085156125d25784156125b45760405162461bcd60e51b815260206004820152603e60248201527f426f72726f7765724f70733a20436f6c6c61746572616c20776974686472617760448201527f616c206e6f74207065726d6974746564205265636f76657279204d6f64650000606482015260840161045f565b83156125cd576125c381611c37565b6125cd8183612664565b612619565b6125e181846101400151611cb5565b600061260c8989866000015187606001516125fc9190612c26565b8760a0015188608001518a611d41565b905061261781611d9b565b505b5050505050505050565b6060611c30838360006126da565b60008060006126448a8a8a8a8a8a612777565b915091506000612655838387611c03565b9b9a5050505050505050505050565b80821015611d3d5760405162461bcd60e51b815260206004820152603e60248201527f426f72726f7765724f70733a2043616e6e6f7420646563726561736520796f7560448201527f722054726f766527732049435220696e205265636f76657279204d6f64650000606482015260840161045f565b6060814710156126ff5760405163cd78605960e01b815230600482015260240161045f565b600080856001600160a01b0316848660405161271b9190612d23565b60006040518083038185875af1925050503d8060008114612758576040519150601f19603f3d011682016040523d82523d6000602084013e61275d565b606091505b509150915061276d8683836127cb565b9695505050505050565b6000808787866127905761278b888b612cd8565b61279a565b61279a888b612bfa565b9150846127b0576127ab868a612cd8565b6127ba565b6127ba868a612bfa565b919a91995090975050505050505050565b6060826127e0576127db82612827565b611c30565b81511580156127f757506001600160a01b0384163b155b1561282057604051639996b31560e01b81526001600160a01b038516600482015260240161045f565b5080611c30565b8051156128375780518082602001fd5b604051630a12f52160e11b815260040160405180910390fd5b6001600160a01b038116811461093b57600080fd5b600080600080600080600060e0888a03121561288057600080fd5b873561288b81612850565b9650602088013561289b81612850565b955060408801359450606088013593506080880135925060a08801356128c081612850565b915060c08801356128d081612850565b8091505092959891949750929550565b600080604083850312156128f357600080fd5b82356128fe81612850565b9150602083013561290e81612850565b809150509250929050565b60006020828403121561292b57600080fd5b5035919050565b60006020828403121561294457600080fd5b8135611c3081612850565b600080600080600060a0868803121561296757600080fd5b853561297281612850565b9450602086013561298281612850565b935060408601359250606086013561299981612850565b915060808601356129a981612850565b809150509295509295909350565b60008151808452602080850194506020840160005b838110156129e8578151875295820195908201906001016129cc565b509495945050505050565b602081526000825160606020840152612a0f60808401826129b7565b90506020840151601f1980858403016040860152612a2d83836129b7565b9250604086015191508085840301606086015250612a4b82826129b7565b95945050505050565b60008060008060008060c08789031215612a6d57600080fd5b8635612a7881612850565b95506020870135612a8881612850565b945060408701359350606087013592506080870135612aa681612850565b915060a0870135612ab681612850565b809150509295509295509295565b801515811461093b57600080fd5b60008060408385031215612ae557600080fd5b8235612af081612850565b9150602083013561290e81612ac4565b60008060008060008060008060006101208a8c031215612b1f57600080fd5b8935612b2a81612850565b985060208a0135612b3a81612850565b975060408a0135965060608a0135955060808a0135945060a08a0135935060c08a0135612b6681612ac4565b925060e08a0135612b7681612850565b91506101008a0135612b8781612850565b809150509295985092959850929598565b60208082526015908201527411195b1959d85d19481b9bdd08185c1c1c9bdd9959605a1b604082015260600190565b600060208284031215612bd957600080fd5b8151611c3081612ac4565b634e487b7160e01b600052601160045260246000fd5b8082018082111561246757612467612be4565b600060208284031215612c1f57600080fd5b5051919050565b808202811582820484141761246757612467612be4565b60008060408385031215612c5057600080fd5b505080516020909101519092909150565b600060208284031215612c7357600080fd5b8151611c3081612850565b634e487b7160e01b600052604160045260246000fd5b634e487b7160e01b600052603260045260246000fd5b600080600060608486031215612cbf57600080fd5b8351925060208401519150604084015190509250925092565b8181038181111561246757612467612be4565b634e487b7160e01b600052603160045260246000fd5b600082612d1e57634e487b7160e01b600052601260045260246000fd5b500490565b6000825160005b81811015612d445760208186018101518583015201612d2a565b50600092019182525091905056fea2646970667358221220169118e8f14e89b704855c36c1977ffab399d076cccc0e862138017ae63fb7c564736f6c63430008180033",
    "linkReferences": {}
  },
  "methodIdentifiers": {
    "CCR()": "5733d58f",
    "DECIMAL_PRECISION()": "a20baee6",
    "PRISMA_CORE()": "cc9641a8",
    "addColl(address,address,uint256,address,address)": "fded3d35",
    "adjustTrove(address,address,uint256,uint256,uint256,uint256,bool,address,address)": "c5a62a99",
    "checkRecoveryMode(uint256)": "4e443d9e",
    "closeTrove(address,address)": "5f548614",
    "configureCollateral(address,address)": "778c5c64",
    "debtToken()": "f8d89898",
    "factory()": "c45a0155",
    "fetchBalances()": "b51237a9",
    "getGlobalSystemBalances()": "716c53c2",
    "getTCR()": "b620115d",
    "guardian()": "452a9320",
    "isApprovedDelegate(address,address)": "1930e825",
    "minNetDebt()": "969c2452",
    "openTrove(address,address,uint256,uint256,uint256,address,address)": "11c61ad3",
    "owner()": "8da5cb5b",
    "removeTroveManager(address)": "e19c80c2",
    "repayDebt(address,address,uint256,address,address)": "a2e8dc0a",
    "setDelegateApproval(address,bool)": "c3c854b6",
    "setMinNetDebt(uint256)": "438d641a",
    "troveManagersData(address)": "568d6fe5",
    "withdrawColl(address,address,uint256,address,address)": "a6b6c8ee",
    "withdrawDebt(address,address,uint256,uint256,address,address)": "c2af1eca"
  },
  "id": 44
}