{
    "abi": [
        {
            "type": "constructor",
            "inputs": [],
            "stateMutability": "nonpayable"
        },
        {
            "type": "function",
            "name": "getMultipleSortedTroves",
            "inputs": [
                {
                    "name": "troveManager",
                    "type": "address",
                    "internalType": "contract ITroveManager"
                },
                {
                    "name": "_startIdx",
                    "type": "int256",
                    "internalType": "int256"
                },
                {
                    "name": "_count",
                    "type": "uint256",
                    "internalType": "uint256"
                }
            ],
            "outputs": [
                {
                    "name": "_troves",
                    "type": "tuple[]",
                    "internalType": "struct MultiTroveGetter.CombinedTroveData[]",
                    "components": [
                        {
                            "name": "owner",
                            "type": "address",
                            "internalType": "address"
                        },
                        {
                            "name": "debt",
                            "type": "uint256",
                            "internalType": "uint256"
                        },
                        {
                            "name": "coll",
                            "type": "uint256",
                            "internalType": "uint256"
                        },
                        {
                            "name": "stake",
                            "type": "uint256",
                            "internalType": "uint256"
                        },
                        {
                            "name": "snapshotCollateral",
                            "type": "uint256",
                            "internalType": "uint256"
                        },
                        {
                            "name": "snapshotDebt",
                            "type": "uint256",
                            "internalType": "uint256"
                        }
                    ]
                }
            ],
            "stateMutability": "view"
        }
    ],
    "bytecode": {
        "object": "0x608060405234801561000f575f80fd5b50610b128061001d5f395ff3fe608060405234801561000f575f80fd5b5060043610610029575f3560e01c806305e533ce1461002d575b5f80fd5b61004061003b3660046108cd565b610056565b60405161004d91906108ff565b60405180910390f35b60605f846001600160a01b031663ae9187546040518163ffffffff1660e01b8152600401602060405180830381865afa158015610095573d5f803e3d5ffd5b505050506040513d601f19601f820116820180604052508101906100b9919061097f565b90505f805f86126100cf575084905060016100e9565b6100da8660016109b5565b6100e3906109dc565b91505f90505b5f836001600160a01b031663de8fa4316040518163ffffffff1660e01b8152600401602060405180830381865afa158015610126573d5f803e3d5ffd5b505050506040513d601f19601f8201168201806040525081019061014a91906109f6565b905080831061018b57604080515f8082526020820190925290610183565b61017061087d565b8152602001906001900390816101685790505b5094506101ce565b5f6101968483610a21565b9050808711156101a4578096505b82156101bd576101b68986868a6101d9565b95506101cc565b6101c98986868a610530565b95505b505b505050509392505050565b60605f846001600160a01b0316631e2231436040518163ffffffff1660e01b8152600401602060405180830381865afa158015610218573d5f803e3d5ffd5b505050506040513d601f19601f8201168201806040525081019061023c919061097f565b90505f5b848110156102ba5760405163765e015960e01b81526001600160a01b03838116600483015287169063765e015990602401602060405180830381865afa15801561028c573d5f803e3d5ffd5b505050506040513d601f19601f820116820180604052508101906102b0919061097f565b9150600101610240565b508267ffffffffffffffff8111156102d4576102d4610a0d565b60405190808252806020026020018201604052801561030d57816020015b6102fa61087d565b8152602001906001900390816102f25790505b5091505f5b83811015610526578183828151811061032d5761032d610a3a565b60209081029190910101516001600160a01b039182169052604051630ddec86760e31b8152838216600482015290881690636ef643389060240160a060405180830381865afa158015610382573d5f803e3d5ffd5b505050506040513d601f19601f820116820180604052508101906103a69190610a4e565b9050508584815181106103bb576103bb610a3a565b60200260200101516020018685815181106103d8576103d8610a3a565b60200260200101516040018786815181106103f5576103f5610a3a565b60209081029190910101516060019290925291905252604051630b39e3cd60e11b81526001600160a01b038381166004830152881690631673c79a906024016040805180830381865afa15801561044e573d5f803e3d5ffd5b505050506040513d601f19601f820116820180604052508101906104729190610aba565b84838151811061048457610484610a3a565b60200260200101516080018584815181106104a1576104a1610a3a565b602090810291909101015160a001919091525260405163765e015960e01b81526001600160a01b03838116600483015287169063765e015990602401602060405180830381865afa1580156104f8573d5f803e3d5ffd5b505050506040513d601f19601f8201168201806040525081019061051c919061097f565b9150600101610312565b5050949350505050565b60605f846001600160a01b0316634d6228316040518163ffffffff1660e01b8152600401602060405180830381865afa15801561056f573d5f803e3d5ffd5b505050506040513d601f19601f82011682018060405250810190610593919061097f565b90505f5b8481101561061157604051632dc9c0eb60e21b81526001600160a01b03838116600483015287169063b72703ac90602401602060405180830381865afa1580156105e3573d5f803e3d5ffd5b505050506040513d601f19601f82011682018060405250810190610607919061097f565b9150600101610597565b508267ffffffffffffffff81111561062b5761062b610a0d565b60405190808252806020026020018201604052801561066457816020015b61065161087d565b8152602001906001900390816106495790505b5091505f5b83811015610526578183828151811061068457610684610a3a565b60209081029190910101516001600160a01b039182169052604051630ddec86760e31b8152838216600482015290881690636ef643389060240160a060405180830381865afa1580156106d9573d5f803e3d5ffd5b505050506040513d601f19601f820116820180604052508101906106fd9190610a4e565b90505085848151811061071257610712610a3a565b602002602001015160200186858151811061072f5761072f610a3a565b602002602001015160400187868151811061074c5761074c610a3a565b60209081029190910101516060019290925291905252604051630b39e3cd60e11b81526001600160a01b038381166004830152881690631673c79a906024016040805180830381865afa1580156107a5573d5f803e3d5ffd5b505050506040513d601f19601f820116820180604052508101906107c99190610aba565b8483815181106107db576107db610a3a565b60200260200101516080018584815181106107f8576107f8610a3a565b602090810291909101015160a0019190915252604051632dc9c0eb60e21b81526001600160a01b03838116600483015287169063b72703ac90602401602060405180830381865afa15801561084f573d5f803e3d5ffd5b505050506040513d601f19601f82011682018060405250810190610873919061097f565b9150600101610669565b6040518060c001604052805f6001600160a01b031681526020015f81526020015f81526020015f81526020015f81526020015f81525090565b6001600160a01b03811681146108ca575f80fd5b50565b5f805f606084860312156108df575f80fd5b83356108ea816108b6565b95602085013595506040909401359392505050565b602080825282518282018190525f919060409081850190868401855b8281101561097257815180516001600160a01b0316855286810151878601528581015186860152606080820151908601526080808201519086015260a0908101519085015260c0909301929085019060010161091b565b5091979650505050505050565b5f6020828403121561098f575f80fd5b815161099a816108b6565b9392505050565b634e487b7160e01b5f52601160045260245ffd5b8082018281125f8312801582168215821617156109d4576109d46109a1565b505092915050565b5f600160ff1b82016109f0576109f06109a1565b505f0390565b5f60208284031215610a06575f80fd5b5051919050565b634e487b7160e01b5f52604160045260245ffd5b81810381811115610a3457610a346109a1565b92915050565b634e487b7160e01b5f52603260045260245ffd5b5f805f805f60a08688031215610a62575f80fd5b855194506020860151935060408601519250606086015160ff81168114610a87575f80fd5b60808701519092506fffffffffffffffffffffffffffffffff81168114610aac575f80fd5b809150509295509295909350565b5f8060408385031215610acb575f80fd5b50508051602090910151909290915056fea2646970667358221220efac0700cb5d34f1766c8d350448f6236b2b5a464bc78feb9df91a352b89435d64736f6c63430008180033",
        "linkReferences": {}
    },
    "methodIdentifiers": {
        "getMultipleSortedTroves(address,int256,uint256)": "05e533ce"
    },
    "id": 66
}