{"abi":[{"type":"constructor","inputs":[{"name":"_borrowerOperationsAddress","type":"address","internalType":"address"}],"stateMutability":"nonpayable"},{"type":"function","name":"CCR","inputs":[],"outputs":[{"name":"","type":"uint256","internalType":"uint256"}],"stateMutability":"view"},{"type":"function","name":"DECIMAL_PRECISION","inputs":[],"outputs":[{"name":"","type":"uint256","internalType":"uint256"}],"stateMutability":"view"},{"type":"function","name":"borrowerOperations","inputs":[],"outputs":[{"name":"","type":"address","internalType":"contract IBorrowerOperations"}],"stateMutability":"view"},{"type":"function","name":"computeCR","inputs":[{"name":"_coll","type":"uint256","internalType":"uint256"},{"name":"_debt","type":"uint256","internalType":"uint256"},{"name":"_price","type":"uint256","internalType":"uint256"}],"outputs":[{"name":"","type":"uint256","internalType":"uint256"}],"stateMutability":"pure"},{"type":"function","name":"computeNominalCR","inputs":[{"name":"_coll","type":"uint256","internalType":"uint256"},{"name":"_debt","type":"uint256","internalType":"uint256"}],"outputs":[{"name":"","type":"uint256","internalType":"uint256"}],"stateMutability":"pure"},{"type":"function","name":"getApproxHint","inputs":[{"name":"troveManager","type":"address","internalType":"contract ITroveManager"},{"name":"_CR","type":"uint256","internalType":"uint256"},{"name":"_numTrials","type":"uint256","internalType":"uint256"},{"name":"_inputRandomSeed","type":"uint256","internalType":"uint256"}],"outputs":[{"name":"hintAddress","type":"address","internalType":"address"},{"name":"diff","type":"uint256","internalType":"uint256"}],"stateMutability":"view"},{"type":"function","name":"getRedemptionHints","inputs":[{"name":"troveManager","type":"address","internalType":"contract ITroveManager"},{"name":"_debtAmount","type":"uint256","internalType":"uint256"},{"name":"_price","type":"uint256","internalType":"uint256"},{"name":"_maxIterations","type":"uint256","internalType":"uint256"}],"outputs":[{"name":"firstRedemptionHint","type":"address","internalType":"address"},{"name":"partialRedemptionHintNICR","type":"uint256","internalType":"uint256"},{"name":"truncatedDebtAmount","type":"uint256","internalType":"uint256"}],"stateMutability":"nonpayable"}],"bytecode":{"object":"0x60a060405234801561001057600080fd5b50604051610d49380380610d4983398101604081905261002f91610040565b6001600160a01b0316608052610070565b60006020828403121561005257600080fd5b81516001600160a01b038116811461006957600080fd5b9392505050565b608051610cb761009260003960008181610126015261075a0152610cb76000f3fe608060405234801561001057600080fd5b506004361061007d5760003560e01c8063701526b41161005b578063701526b4146100ef57806377553ad414610121578063a20baee614610160578063c394a7fa1461016f57600080fd5b8063301be45914610082578063525acdbb146100bf5780635733d58f146100e0575b600080fd5b610095610090366004610ade565b610182565b604080516001600160a01b0390941684526020840192909252908201526060015b60405180910390f35b6100d26100cd366004610b19565b6102f9565b6040519081526020016100b6565b6100d26714d1120d7b16000081565b6101026100fd366004610ade565b610310565b604080516001600160a01b0390931683526020830191909152016100b6565b6101487f000000000000000000000000000000000000000000000000000000000000000081565b6040516001600160a01b0390911681526020016100b6565b6100d2670de0b6b3a764000081565b6100d261017d366004610b45565b610632565b600080600080876001600160a01b031663ae9187546040518163ffffffff1660e01b8152600401602060405180830381865afa1580156101c6573d6000803e3d6000fd5b505050506040513d601f19601f820116820180604052508101906101ea9190610b67565b90506000816001600160a01b0316634d6228316040518163ffffffff1660e01b8152600401602060405180830381865afa15801561022c573d6000803e3d6000fd5b505050506040513d601f19601f820116820180604052508101906102509190610b67565b90506000896001600160a01b031663794e57246040518163ffffffff1660e01b8152600401602060405180830381865afa158015610292573d6000803e3d6000fd5b505050506040513d601f19601f820116820180604052508101906102b69190610b84565b90506102c5838b84848c610647565b9150819550866000036102d85760001996505b6102e68a848b858c8c610753565b969b909a50959850949650505050505050565b6000610306848484610a26565b90505b9392505050565b6000806000866001600160a01b031663ae9187546040518163ffffffff1660e01b8152600401602060405180830381865afa158015610353573d6000803e3d6000fd5b505050506040513d601f19601f820116820180604052508101906103779190610b67565b90506000876001600160a01b03166349eefeee6040518163ffffffff1660e01b8152600401602060405180830381865afa1580156103b9573d6000803e3d6000fd5b505050506040513d601f19601f820116820180604052508101906103dd9190610b84565b9050806000036103f557600080935093505050610629565b816001600160a01b0316634d6228316040518163ffffffff1660e01b8152600401602060405180830381865afa158015610433573d6000803e3d6000fd5b505050506040513d601f19601f820116820180604052508101906104579190610b67565b60405163b0d8e18160e01b81526001600160a01b0380831660048301529195506104d0918991908b169063b0d8e18190602401602060405180830381865afa1580156104a7573d6000803e3d6000fd5b505050506040513d601f19601f820116820180604052508101906104cb9190610b84565b610a57565b92508460015b878110156106245760408051602081018490520160408051601f198184030181529190528051602090910120915060006105108484610bb3565b604051633669c91160e21b8152600481018290529091506000906001600160a01b038d169063d9a7244490602401602060405180830381865afa15801561055b573d6000803e3d6000fd5b505050506040513d601f19601f8201168201806040525081019061057f9190610b67565b60405163b0d8e18160e01b81526001600160a01b0380831660048301529192506000918e169063b0d8e18190602401602060405180830381865afa1580156105cb573d6000803e3d6000fd5b505050506040513d601f19601f820116820180604052508101906105ef9190610b84565b905060006105fd828e610a57565b90508881101561060e578098508299505b8461061881610bdd565b955050505050506104d6565b505050505b94509492505050565b600061063e8383610a7a565b90505b92915050565b60005b6001600160a01b038416158015906106d35750604051630d293c7160e41b81526001600160a01b0385811660048301526024820184905284919087169063d293c71090604401602060405180830381865afa1580156106ad573d6000803e3d6000fd5b505050506040513d601f19601f820116820180604052508101906106d19190610b84565b105b1561074957604051632dc9c0eb60e21b81526001600160a01b03858116600483015287169063b72703ac90602401602060405180830381865afa15801561071e573d6000803e3d6000fd5b505050506040513d601f19601f820116820180604052508101906107429190610b67565b935061064a565b5091949350505050565b60008060007f00000000000000000000000000000000000000000000000000000000000000006001600160a01b031663969c24526040518163ffffffff1660e01b8152600401602060405180830381865afa1580156107b6573d6000803e3d6000fd5b505050506040513d601f19601f820116820180604052508101906107da9190610b84565b9050865b6001600160a01b038716158015906107f65750600081115b801561080d575060008561080981610bf6565b9650115b15610a0d5760405163a92a234d60e01b81526001600160a01b03888116600483015260009182918d169063a92a234d90602401608060405180830381865afa15801561085d573d6000803e3d6000fd5b505050506040513d601f19601f820116820180604052508101906108819190610c0d565b5091935091508290508381111561098b57848111156109835760006108af856108aa8885610c43565b610ab0565b905060008a6108c6670de0b6b3a764000084610c56565b6108d09190610c6d565b905060008f6001600160a01b03166308fdb61b836040518263ffffffff1660e01b815260040161090291815260200190565b6020604051808303816000875af1158015610921573d6000803e3d6000fd5b505050506040513d601f19601f820116820180604052508101906109459190610b84565b905060006109538287610c43565b905060006109618587610c43565b90508061096e8382610a7a565b9c5061097a868b610c43565b99505050505050505b505050610a0d565b6109958185610c43565b604051632dc9c0eb60e21b81526001600160a01b038c81166004830152919550908d169063b72703ac90602401602060405180830381865afa1580156109df573d6000803e3d6000fd5b505050506040513d601f19601f82011682018060405250810190610a039190610b67565b99505050506107de565b610a178189610c43565b92505050965096945050505050565b60008215610a4e57600083610a3b8487610c56565b610a459190610c6d565b91506103099050565b50600019610309565b600081831015610a7057610a6b8383610c43565b61063e565b61063e8284610c43565b60008115610aa75781610a9668056bc75e2d6310000085610c56565b610aa09190610c6d565b9050610641565b50600019610641565b6000818310610abf578161063e565b5090919050565b6001600160a01b0381168114610adb57600080fd5b50565b60008060008060808587031215610af457600080fd5b8435610aff81610ac6565b966020860135965060408601359560600135945092505050565b600080600060608486031215610b2e57600080fd5b505081359360208301359350604090920135919050565b60008060408385031215610b5857600080fd5b50508035926020909101359150565b600060208284031215610b7957600080fd5b815161030981610ac6565b600060208284031215610b9657600080fd5b5051919050565b634e487b7160e01b600052601260045260246000fd5b600082610bc257610bc2610b9d565b500690565b634e487b7160e01b600052601160045260246000fd5b600060018201610bef57610bef610bc7565b5060010190565b600081610c0557610c05610bc7565b506000190190565b60008060008060808587031215610c2357600080fd5b505082516020840151604085015160609095015191969095509092509050565b8181038181111561064157610641610bc7565b808202811582820484141761064157610641610bc7565b600082610c7c57610c7c610b9d565b50049056fea2646970667358221220b0fc77defd10f4e4f0df58d39f530bee08a1e75e0fbe32088db00a0f6459f5cd64736f6c63430008180033","linkReferences":{}},"methodIdentifiers":{"CCR()":"5733d58f","DECIMAL_PRECISION()":"a20baee6","borrowerOperations()":"77553ad4","computeCR(uint256,uint256,uint256)":"525acdbb","computeNominalCR(uint256,uint256)":"c394a7fa","getApproxHint(address,uint256,uint256,uint256)":"701526b4","getRedemptionHints(address,uint256,uint256,uint256)":"301be459"},"id":53}