{
  "abi": [
    {
      "type": "function",
      "name": "contains",
      "inputs": [
        {
          "name": "_id",
          "type": "address",
          "internalType": "address"
        }
      ],
      "outputs": [
        {
          "name": "",
          "type": "bool",
          "internalType": "bool"
        }
      ],
      "stateMutability": "view"
    },
    {
      "type": "function",
      "name": "data",
      "inputs": [],
      "outputs": [
        {
          "name": "head",
          "type": "address",
          "internalType": "address"
        },
        {
          "name": "tail",
          "type": "address",
          "internalType": "address"
        },
        {
          "name": "size",
          "type": "uint256",
          "internalType": "uint256"
        }
      ],
      "stateMutability": "view"
    },
    {
      "type": "function",
      "name": "findInsertPosition",
      "inputs": [
        {
          "name": "_NICR",
          "type": "uint256",
          "internalType": "uint256"
        },
        {
          "name": "_prevId",
          "type": "address",
          "internalType": "address"
        },
        {
          "name": "_nextId",
          "type": "address",
          "internalType": "address"
        }
      ],
      "outputs": [
        {
          "name": "",
          "type": "address",
          "internalType": "address"
        },
        {
          "name": "",
          "type": "address",
          "internalType": "address"
        }
      ],
      "stateMutability": "view"
    },
    {
      "type": "function",
      "name": "getFirst",
      "inputs": [],
      "outputs": [
        {
          "name": "",
          "type": "address",
          "internalType": "address"
        }
      ],
      "stateMutability": "view"
    },
    {
      "type": "function",
      "name": "getLast",
      "inputs": [],
      "outputs": [
        {
          "name": "",
          "type": "address",
          "internalType": "address"
        }
      ],
      "stateMutability": "view"
    },
    {
      "type": "function",
      "name": "getNext",
      "inputs": [
        {
          "name": "_id",
          "type": "address",
          "internalType": "address"
        }
      ],
      "outputs": [
        {
          "name": "",
          "type": "address",
          "internalType": "address"
        }
      ],
      "stateMutability": "view"
    },
    {
      "type": "function",
      "name": "getPrev",
      "inputs": [
        {
          "name": "_id",
          "type": "address",
          "internalType": "address"
        }
      ],
      "outputs": [
        {
          "name": "",
          "type": "address",
          "internalType": "address"
        }
      ],
      "stateMutability": "view"
    },
    {
      "type": "function",
      "name": "getSize",
      "inputs": [],
      "outputs": [
        {
          "name": "",
          "type": "uint256",
          "internalType": "uint256"
        }
      ],
      "stateMutability": "view"
    },
    {
      "type": "function",
      "name": "insert",
      "inputs": [
        {
          "name": "_id",
          "type": "address",
          "internalType": "address"
        },
        {
          "name": "_NICR",
          "type": "uint256",
          "internalType": "uint256"
        },
        {
          "name": "_prevId",
          "type": "address",
          "internalType": "address"
        },
        {
          "name": "_nextId",
          "type": "address",
          "internalType": "address"
        }
      ],
      "outputs": [],
      "stateMutability": "nonpayable"
    },
    {
      "type": "function",
      "name": "isEmpty",
      "inputs": [],
      "outputs": [
        {
          "name": "",
          "type": "bool",
          "internalType": "bool"
        }
      ],
      "stateMutability": "view"
    },
    {
      "type": "function",
      "name": "reInsert",
      "inputs": [
        {
          "name": "_id",
          "type": "address",
          "internalType": "address"
        },
        {
          "name": "_newNICR",
          "type": "uint256",
          "internalType": "uint256"
        },
        {
          "name": "_prevId",
          "type": "address",
          "internalType": "address"
        },
        {
          "name": "_nextId",
          "type": "address",
          "internalType": "address"
        }
      ],
      "outputs": [],
      "stateMutability": "nonpayable"
    },
    {
      "type": "function",
      "name": "remove",
      "inputs": [
        {
          "name": "_id",
          "type": "address",
          "internalType": "address"
        }
      ],
      "outputs": [],
      "stateMutability": "nonpayable"
    },
    {
      "type": "function",
      "name": "setAddresses",
      "inputs": [
        {
          "name": "_troveManagerAddress",
          "type": "address",
          "internalType": "address"
        }
      ],
      "outputs": [],
      "stateMutability": "nonpayable"
    },
    {
      "type": "function",
      "name": "troveManager",
      "inputs": [],
      "outputs": [
        {
          "name": "",
          "type": "address",
          "internalType": "contract ITroveManager"
        }
      ],
      "stateMutability": "view"
    },
    {
      "type": "function",
      "name": "validInsertPosition",
      "inputs": [
        {
          "name": "_NICR",
          "type": "uint256",
          "internalType": "uint256"
        },
        {
          "name": "_prevId",
          "type": "address",
          "internalType": "address"
        },
        {
          "name": "_nextId",
          "type": "address",
          "internalType": "address"
        }
      ],
      "outputs": [
        {
          "name": "",
          "type": "bool",
          "internalType": "bool"
        }
      ],
      "stateMutability": "view"
    },
    {
      "type": "event",
      "name": "NodeAdded",
      "inputs": [
        {
          "name": "_id",
          "type": "address",
          "indexed": false,
          "internalType": "address"
        },
        {
          "name": "_NICR",
          "type": "uint256",
          "indexed": false,
          "internalType": "uint256"
        }
      ],
      "anonymous": false
    },
    {
      "type": "event",
      "name": "NodeRemoved",
      "inputs": [
        {
          "name": "_id",
          "type": "address",
          "indexed": false,
          "internalType": "address"
        }
      ],
      "anonymous": false
    }
  ],
  "bytecode": {
    "object": "0x608060405234801561001057600080fd5b506111ce806100206000396000f3fe608060405234801561001057600080fd5b50600436106100f55760003560e01c80634d62283111610097578063765e015911610066578063765e01591461025257806381d3c43514610283578063b72703ac14610296578063de8fa431146102c557600080fd5b80634d622831146101c85780635dbe47e8146101d9578063681fe70c1461020557806373d4a13a1461020e57600080fd5b80633d83908a116100d35780633d83908a1461014c5780633fce12d51461015f578063416980dc1461018257806346f7cf87146101b557600080fd5b80631e223143146100fa57806329092d0e146101245780632be2126014610139575b600080fd5b6001546001600160a01b03165b6040516001600160a01b0390911681526020015b60405180910390f35b610137610132366004611092565b6102d6565b005b6101376101473660046110b4565b610310565b600054610107906001600160a01b031681565b61017261016d366004611101565b61035d565b604051901515815260200161011b565b610195610190366004611101565b61037e565b604080516001600160a01b0393841681529290911660208301520161011b565b6101376101c33660046110b4565b6103a6565b6002546001600160a01b0316610107565b6101726101e7366004611092565b6001600160a01b031660009081526004602052604090205460ff1690565b60035415610172565b60015460025460035461022c926001600160a01b0390811692169083565b604080516001600160a01b0394851681529390921660208401529082015260600161011b565b610107610260366004611092565b6001600160a01b0390811660009081526004602052604090205461010090041690565b610137610291366004611092565b610495565b6101076102a4366004611092565b6001600160a01b039081166000908152600460205260409020600101541690565b60035460405190815260200161011b565b6000546102eb906001600160a01b03166104fe565b6001600160a01b038116600090815260046020526040902061030d908261056b565b50565b6000546001600160a01b0316610325816104fe565b6001600160a01b0385166000908152600460205260409020610347818761056b565b610355818388888888610793565b505050505050565b60008054610376906001600160a01b0316858585610a10565b949350505050565b600080548190610399906001600160a01b0316868686610c47565b915091505b935093915050565b6000546001600160a01b03166103bb816104fe565b6001600160a01b0385166000908152600460205260409020805460ff161561043f5760405162461bcd60e51b815260206004820152602c60248201527f536f7274656454726f7665733a204c69737420616c726561647920636f6e746160448201526b696e7320746865206e6f646560a01b60648201526084015b60405180910390fd5b6001600160a01b0386166103475760405162461bcd60e51b815260206004820152601f60248201527f536f7274656454726f7665733a2049642063616e6e6f74206265207a65726f006044820152606401610436565b6000546001600160a01b0316156104dc5760405162461bcd60e51b815260206004820152600b60248201526a105b1c9958591e481cd95d60aa1b6044820152606401610436565b600080546001600160a01b0319166001600160a01b0392909216919091179055565b336001600160a01b0382161461030d5760405162461bcd60e51b815260206004820152602c60248201527f536f7274656454726f7665733a2043616c6c6572206973206e6f74207468652060448201526b2a3937bb32a6b0b730b3b2b960a11b6064820152608401610436565b815460ff166105cf5760405162461bcd60e51b815260206004820152602a60248201527f536f7274656454726f7665733a204c69737420646f6573206e6f7420636f6e74604482015269185a5b881d1a19481a5960b21b6064820152608401610436565b600354600110156106ed576001546001600160a01b0390811690821603610630578154600180546101009092046001600160a01b03166001600160a01b0319928316811782556000908152600460205260409020018054909116905561070a565b6002546001600160a01b039081169082160361068b576001820154600280546001600160a01b0319166001600160a01b03909216918217905560009081526004602052604090208054610100600160a81b031916905561070a565b60018281015483546001600160a01b039182166000818152600460205260408082208054610100600160a81b031916610100958690049096169485029590951790945591825291902090910180546001600160a01b031916909117905561070a565b600180546001600160a01b03199081169091556002805490911690555b6001600160a01b038116600090815260046020526040902080546001600160a81b0319168155600190810180546001600160a01b03191690556003546107509190611153565b6003556040516001600160a01b03821681527fcfc24166db4bb677e857cacabd1541fb2b30645021b27c5130419589b84db52b9060200160405180910390a15050565b600083116107ef5760405162461bcd60e51b815260206004820152602360248201527f536f7274656454726f7665733a204e494352206d75737420626520706f73697460448201526269766560e81b6064820152608401610436565b81816107fd87868484610a10565b6108135761080d87868484610c47565b90925090505b875460ff191660011788556001600160a01b03821615801561083c57506001600160a01b038116155b1561087157600180546001600160a01b0388166001600160a01b031991821681179092556002805490911690911790556109b3565b6001600160a01b0382166108d957600180548954610100600160a81b0319166101006001600160a01b03928316908102919091178b556000908152600460205260409020820180546001600160a01b0319908116928a169283179091558254161790556109b3565b6001600160a01b038116610940576002805460018a0180546001600160a01b039283166001600160a01b031991821681179092556000918252600460205260409091208054610100600160a81b031916610100938b169384021790558254161790556109b3565b87546001600160a01b03808316610100818102610100600160a81b0319948516178c556001808d0180548886166001600160a01b031991821681179092556000918252600460205260408083208054978f1695860297909816969096179096559283529290912090910180549092161790555b6003546109c190600161116c565b600355604080516001600160a01b0388168152602081018790527fe02b43adbee0c123de070a04554a71877a0007e2fc161466299cae3c094fe82f910160405180910390a15050505050505050565b60006001600160a01b038316158015610a3057506001600160a01b038216155b15610a4157600354155b9050610376565b6001600160a01b038316610adc576001546001600160a01b038381169116148015610a3a575060405163b0d8e18160e01b81526001600160a01b03838116600483015286169063b0d8e181906024015b602060405180830381865afa158015610aae573d6000803e3d6000fd5b505050506040513d601f19601f82011682018060405250810190610ad2919061117f565b8410159050610376565b6001600160a01b038216610b76576002546001600160a01b038481169116148015610a3a575060405163b0d8e18160e01b81526001600160a01b03848116600483015286169063b0d8e18190602401602060405180830381865afa158015610b48573d6000803e3d6000fd5b505050506040513d601f19601f82011682018060405250810190610b6c919061117f565b8411159050610376565b6001600160a01b0383811660009081526004602052604090205461010090048116908316148015610c12575060405163b0d8e18160e01b81526001600160a01b03848116600483015285919087169063b0d8e18190602401602060405180830381865afa158015610beb573d6000803e3d6000fd5b505050506040513d601f19601f82011682018060405250810190610c0f919061117f565b10155b8015610a3a575060405163b0d8e18160e01b81526001600160a01b03838116600483015286169063b0d8e18190602401610a91565b60008083836001600160a01b03821615610cf5576001600160a01b03821660009081526004602052604090205460ff161580610ceb575060405163b0d8e18160e01b81526001600160a01b03838116600483015289169063b0d8e18190602401602060405180830381865afa158015610cc4573d6000803e3d6000fd5b505050506040513d601f19601f82011682018060405250810190610ce8919061117f565b87115b15610cf557600091505b6001600160a01b03811615610d9d576001600160a01b03811660009081526004602052604090205460ff161580610d94575060405163b0d8e18160e01b81526001600160a01b03828116600483015289169063b0d8e18190602401602060405180830381865afa158015610d6d573d6000803e3d6000fd5b505050506040513d601f19601f82011682018060405250810190610d91919061117f565b87105b15610d9d575060005b6001600160a01b038216158015610dbb57506001600160a01b038116155b15610de457600154610dd990899089906001600160a01b0316610e2a565b935093505050610e21565b6001600160a01b038216610dfd57610dd9888883610f53565b6001600160a01b038116610e1657610dd9888884610e2a565b610dd9888884610e2a565b94509492505050565b60015460009081906001600160a01b038481169116148015610eb5575060405163b0d8e18160e01b81526001600160a01b03848116600483015286169063b0d8e18190602401602060405180830381865afa158015610e8d573d6000803e3d6000fd5b505050506040513d601f19601f82011682018060405250810190610eb1919061117f565b8410155b15610ec55750600090508161039e565b6001600160a01b038084166000908152600460205260409020548491610100909104165b6001600160a01b03821615801590610f0a5750610f0887878484610a10565b155b15610f4757506001600160a01b03908116600090815260046020526040808220546101009081900484168084529190922054909291900416610ee9565b90969095509350505050565b60025460009081906001600160a01b038481169116148015610fde575060405163b0d8e18160e01b81526001600160a01b03848116600483015286169063b0d8e18190602401602060405180830381865afa158015610fb6573d6000803e3d6000fd5b505050506040513d601f19601f82011682018060405250810190610fda919061117f565b8411155b15610fee5750819050600061039e565b6001600160a01b038084166000908152600460205260409020600101548491165b6001600160a01b03821615801590611030575061102e87878385610a10565b155b1561106b57506001600160a01b039081166000908152600460205260408082206001908101548416808452919092209091015490911661100f565b969095509350505050565b80356001600160a01b038116811461108d57600080fd5b919050565b6000602082840312156110a457600080fd5b6110ad82611076565b9392505050565b600080600080608085870312156110ca57600080fd5b6110d385611076565b9350602085013592506110e860408601611076565b91506110f660608601611076565b905092959194509250565b60008060006060848603121561111657600080fd5b8335925061112660208501611076565b915061113460408501611076565b90509250925092565b634e487b7160e01b600052601160045260246000fd5b818103818111156111665761116661113d565b92915050565b808201808211156111665761116661113d565b60006020828403121561119157600080fd5b505191905056fea26469706673582212200cb8111fb5b457c2f228e02b1a1dab09fd15f7f331a58efbe232d75a2704dc9664736f6c63430008180033",
    "linkReferences": {}
  },
  "methodIdentifiers": {
    "contains(address)": "5dbe47e8",
    "data()": "73d4a13a",
    "findInsertPosition(uint256,address,address)": "416980dc",
    "getFirst()": "1e223143",
    "getLast()": "4d622831",
    "getNext(address)": "765e0159",
    "getPrev(address)": "b72703ac",
    "getSize()": "de8fa431",
    "insert(address,uint256,address,address)": "46f7cf87",
    "isEmpty()": "681fe70c",
    "reInsert(address,uint256,address,address)": "2be21260",
    "remove(address)": "29092d0e",
    "setAddresses(address)": "81d3c435",
    "troveManager()": "3d83908a",
    "validInsertPosition(uint256,address,address)": "3fce12d5"
  },
  "id": 50
}