{
  "abi": [
    {
      "type": "constructor",
      "inputs": [
        {
          "name": "_prismaCore",
          "type": "address",
          "internalType": "address"
        },
        {
          "name": "_debtTokenAddress",
          "type": "address",
          "internalType": "address"
        },
        {
          "name": "_borrowerOperationsAddress",
          "type": "address",
          "internalType": "address"
        },
        {
          "name": "_liquidationManager",
          "type": "address",
          "internalType": "address"
        }
      ],
      "stateMutability": "nonpayable"
    },
    {
      "type": "function",
      "name": "BOOTSTRAP_PERIOD",
      "inputs": [],
      "outputs": [
        {
          "name": "",
          "type": "uint256",
          "internalType": "uint256"
        }
      ],
      "stateMutability": "view"
    },
    {
      "type": "function",
      "name": "CCR",
      "inputs": [],
      "outputs": [
        {
          "name": "",
          "type": "uint256",
          "internalType": "uint256"
        }
      ],
      "stateMutability": "view"
    },
    {
      "type": "function",
      "name": "DECIMAL_PRECISION",
      "inputs": [],
      "outputs": [
        {
          "name": "",
          "type": "uint256",
          "internalType": "uint256"
        }
      ],
      "stateMutability": "view"
    },
    {
      "type": "function",
      "name": "L_collShares",
      "inputs": [],
      "outputs": [
        {
          "name": "",
          "type": "uint256",
          "internalType": "uint256"
        }
      ],
      "stateMutability": "view"
    },
    {
      "type": "function",
      "name": "L_debt",
      "inputs": [],
      "outputs": [
        {
          "name": "",
          "type": "uint256",
          "internalType": "uint256"
        }
      ],
      "stateMutability": "view"
    },
    {
      "type": "function",
      "name": "MCR",
      "inputs": [],
      "outputs": [
        {
          "name": "",
          "type": "uint256",
          "internalType": "uint256"
        }
      ],
      "stateMutability": "view"
    },
    {
      "type": "function",
      "name": "PRISMA_CORE",
      "inputs": [],
      "outputs": [
        {
          "name": "",
          "type": "address",
          "internalType": "contract IPrismaCore"
        }
      ],
      "stateMutability": "view"
    },
    {
      "type": "function",
      "name": "Troves",
      "inputs": [
        {
          "name": "",
          "type": "address",
          "internalType": "address"
        }
      ],
      "outputs": [
        {
          "name": "debt",
          "type": "uint256",
          "internalType": "uint256"
        },
        {
          "name": "collShares",
          "type": "uint256",
          "internalType": "uint256"
        },
        {
          "name": "stake",
          "type": "uint256",
          "internalType": "uint256"
        },
        {
          "name": "status",
          "type": "uint8",
          "internalType": "enum TroveManager.Status"
        },
        {
          "name": "arrayIndex",
          "type": "uint128",
          "internalType": "uint128"
        }
      ],
      "stateMutability": "view"
    },
    {
      "type": "function",
      "name": "addCollateralSurplus",
      "inputs": [
        {
          "name": "borrower",
          "type": "address",
          "internalType": "address"
        },
        {
          "name": "collSurplus",
          "type": "uint256",
          "internalType": "uint256"
        }
      ],
      "outputs": [],
      "stateMutability": "nonpayable"
    },
    {
      "type": "function",
      "name": "applyPendingRewards",
      "inputs": [
        {
          "name": "_borrower",
          "type": "address",
          "internalType": "address"
        }
      ],
      "outputs": [
        {
          "name": "",
          "type": "uint256",
          "internalType": "uint256"
        },
        {
          "name": "",
          "type": "uint256",
          "internalType": "uint256"
        }
      ],
      "stateMutability": "nonpayable"
    },
    {
      "type": "function",
      "name": "baseRate",
      "inputs": [],
      "outputs": [
        {
          "name": "",
          "type": "uint256",
          "internalType": "uint256"
        }
      ],
      "stateMutability": "view"
    },
    {
      "type": "function",
      "name": "borrowerOperationsAddress",
      "inputs": [],
      "outputs": [
        {
          "name": "",
          "type": "address",
          "internalType": "address"
        }
      ],
      "stateMutability": "view"
    },
    {
      "type": "function",
      "name": "borrowingFeeEnabled",
      "inputs": [],
      "outputs": [
        {
          "name": "",
          "type": "bool",
          "internalType": "bool"
        }
      ],
      "stateMutability": "view"
    },
    {
      "type": "function",
      "name": "borrowingFeeFloor",
      "inputs": [],
      "outputs": [
        {
          "name": "",
          "type": "uint256",
          "internalType": "uint256"
        }
      ],
      "stateMutability": "view"
    },
    {
      "type": "function",
      "name": "claimCollateral",
      "inputs": [
        {
          "name": "_receiver",
          "type": "address",
          "internalType": "address"
        }
      ],
      "outputs": [],
      "stateMutability": "nonpayable"
    },
    {
      "type": "function",
      "name": "closeTrove",
      "inputs": [
        {
          "name": "_borrower",
          "type": "address",
          "internalType": "address"
        },
        {
          "name": "_receiver",
          "type": "address",
          "internalType": "address"
        },
        {
          "name": "collAmount",
          "type": "uint256",
          "internalType": "uint256"
        },
        {
          "name": "debtAmount",
          "type": "uint256",
          "internalType": "uint256"
        }
      ],
      "outputs": [],
      "stateMutability": "nonpayable"
    },
    {
      "type": "function",
      "name": "closeTroveByLiquidation",
      "inputs": [
        {
          "name": "_borrower",
          "type": "address",
          "internalType": "address"
        }
      ],
      "outputs": [],
      "stateMutability": "nonpayable"
    },
    {
      "type": "function",
      "name": "collGasCompPercentage",
      "inputs": [],
      "outputs": [
        {
          "name": "",
          "type": "uint256",
          "internalType": "uint256"
        }
      ],
      "stateMutability": "view"
    },
    {
      "type": "function",
      "name": "collateralToken",
      "inputs": [],
      "outputs": [
        {
          "name": "",
          "type": "address",
          "internalType": "contract IERC20"
        }
      ],
      "stateMutability": "view"
    },
    {
      "type": "function",
      "name": "convertEthToYieldTokens",
      "inputs": [
        {
          "name": "amount",
          "type": "uint256",
          "internalType": "uint256"
        }
      ],
      "outputs": [
        {
          "name": "",
          "type": "uint256",
          "internalType": "uint256"
        }
      ],
      "stateMutability": "nonpayable"
    },
    {
      "type": "function",
      "name": "convertSharesToEth",
      "inputs": [
        {
          "name": "shares",
          "type": "uint256",
          "internalType": "uint256"
        }
      ],
      "outputs": [
        {
          "name": "",
          "type": "uint256",
          "internalType": "uint256"
        }
      ],
      "stateMutability": "nonpayable"
    },
    {
      "type": "function",
      "name": "convertSharesToYieldTokens",
      "inputs": [
        {
          "name": "shares",
          "type": "uint256",
          "internalType": "uint256"
        }
      ],
      "outputs": [
        {
          "name": "",
          "type": "uint256",
          "internalType": "uint256"
        }
      ],
      "stateMutability": "nonpayable"
    },
    {
      "type": "function",
      "name": "convertYieldTokensToEth",
      "inputs": [
        {
          "name": "amount",
          "type": "uint256",
          "internalType": "uint256"
        }
      ],
      "outputs": [
        {
          "name": "",
          "type": "uint256",
          "internalType": "uint256"
        }
      ],
      "stateMutability": "nonpayable"
    },
    {
      "type": "function",
      "name": "convertYieldTokensToShares",
      "inputs": [
        {
          "name": "amount",
          "type": "uint256",
          "internalType": "uint256"
        }
      ],
      "outputs": [
        {
          "name": "",
          "type": "uint256",
          "internalType": "uint256"
        }
      ],
      "stateMutability": "nonpayable"
    },
    {
      "type": "function",
      "name": "debtToken",
      "inputs": [],
      "outputs": [
        {
          "name": "",
          "type": "address",
          "internalType": "contract IDebtToken"
        }
      ],
      "stateMutability": "view"
    },
    {
      "type": "function",
      "name": "decayBaseRateAndGetBorrowingFee",
      "inputs": [
        {
          "name": "_debt",
          "type": "uint256",
          "internalType": "uint256"
        }
      ],
      "outputs": [
        {
          "name": "",
          "type": "uint256",
          "internalType": "uint256"
        }
      ],
      "stateMutability": "nonpayable"
    },
    {
      "type": "function",
      "name": "decreaseDebtAndSendCollateral",
      "inputs": [
        {
          "name": "account",
          "type": "address",
          "internalType": "address"
        },
        {
          "name": "debt",
          "type": "uint256",
          "internalType": "uint256"
        },
        {
          "name": "collAmount",
          "type": "uint256",
          "internalType": "uint256"
        }
      ],
      "outputs": [],
      "stateMutability": "nonpayable"
    },
    {
      "type": "function",
      "name": "defaultedCollShares",
      "inputs": [],
      "outputs": [
        {
          "name": "",
          "type": "uint256",
          "internalType": "uint256"
        }
      ],
      "stateMutability": "view"
    },
    {
      "type": "function",
      "name": "defaultedDebt",
      "inputs": [],
      "outputs": [
        {
          "name": "",
          "type": "uint256",
          "internalType": "uint256"
        }
      ],
      "stateMutability": "view"
    },
    {
      "type": "function",
      "name": "fetchExchangeRate",
      "inputs": [],
      "outputs": [
        {
          "name": "",
          "type": "uint256",
          "internalType": "uint256"
        }
      ],
      "stateMutability": "nonpayable"
    },
    {
      "type": "function",
      "name": "fetchPriceInUsd",
      "inputs": [],
      "outputs": [
        {
          "name": "",
          "type": "uint256",
          "internalType": "uint256"
        }
      ],
      "stateMutability": "nonpayable"
    },
    {
      "type": "function",
      "name": "finalizeLiquidation",
      "inputs": [
        {
          "name": "_liquidator",
          "type": "address",
          "internalType": "address"
        },
        {
          "name": "_debt",
          "type": "uint256",
          "internalType": "uint256"
        },
        {
          "name": "_collAmount",
          "type": "uint256",
          "internalType": "uint256"
        },
        {
          "name": "_collSurplusAmount",
          "type": "uint256",
          "internalType": "uint256"
        },
        {
          "name": "_collGasComp",
          "type": "uint256",
          "internalType": "uint256"
        }
      ],
      "outputs": [],
      "stateMutability": "nonpayable"
    },
    {
      "type": "function",
      "name": "getBorrowingFee",
      "inputs": [
        {
          "name": "_debt",
          "type": "uint256",
          "internalType": "uint256"
        }
      ],
      "outputs": [
        {
          "name": "",
          "type": "uint256",
          "internalType": "uint256"
        }
      ],
      "stateMutability": "view"
    },
    {
      "type": "function",
      "name": "getBorrowingFeeWithDecay",
      "inputs": [
        {
          "name": "_debt",
          "type": "uint256",
          "internalType": "uint256"
        }
      ],
      "outputs": [
        {
          "name": "",
          "type": "uint256",
          "internalType": "uint256"
        }
      ],
      "stateMutability": "view"
    },
    {
      "type": "function",
      "name": "getBorrowingRate",
      "inputs": [],
      "outputs": [
        {
          "name": "",
          "type": "uint256",
          "internalType": "uint256"
        }
      ],
      "stateMutability": "view"
    },
    {
      "type": "function",
      "name": "getBorrowingRateWithDecay",
      "inputs": [],
      "outputs": [
        {
          "name": "",
          "type": "uint256",
          "internalType": "uint256"
        }
      ],
      "stateMutability": "view"
    },
    {
      "type": "function",
      "name": "getCurrentICR",
      "inputs": [
        {
          "name": "_borrower",
          "type": "address",
          "internalType": "address"
        },
        {
          "name": "_price",
          "type": "uint256",
          "internalType": "uint256"
        }
      ],
      "outputs": [
        {
          "name": "",
          "type": "uint256",
          "internalType": "uint256"
        }
      ],
      "stateMutability": "nonpayable"
    },
    {
      "type": "function",
      "name": "getEntireDebtAndCollShares",
      "inputs": [
        {
          "name": "_borrower",
          "type": "address",
          "internalType": "address"
        }
      ],
      "outputs": [
        {
          "name": "debt",
          "type": "uint256",
          "internalType": "uint256"
        },
        {
          "name": "collShares",
          "type": "uint256",
          "internalType": "uint256"
        },
        {
          "name": "pendingDebtReward",
          "type": "uint256",
          "internalType": "uint256"
        },
        {
          "name": "pendingCollSharesReward",
          "type": "uint256",
          "internalType": "uint256"
        }
      ],
      "stateMutability": "view"
    },
    {
      "type": "function",
      "name": "getEntireSystemBalances",
      "inputs": [],
      "outputs": [
        {
          "name": "",
          "type": "uint256",
          "internalType": "uint256"
        },
        {
          "name": "",
          "type": "uint256",
          "internalType": "uint256"
        },
        {
          "name": "",
          "type": "uint256",
          "internalType": "uint256"
        }
      ],
      "stateMutability": "nonpayable"
    },
    {
      "type": "function",
      "name": "getEntireSystemColl",
      "inputs": [],
      "outputs": [
        {
          "name": "",
          "type": "uint256",
          "internalType": "uint256"
        }
      ],
      "stateMutability": "nonpayable"
    },
    {
      "type": "function",
      "name": "getEntireSystemCollShares",
      "inputs": [],
      "outputs": [
        {
          "name": "",
          "type": "uint256",
          "internalType": "uint256"
        }
      ],
      "stateMutability": "view"
    },
    {
      "type": "function",
      "name": "getEntireSystemDebt",
      "inputs": [],
      "outputs": [
        {
          "name": "",
          "type": "uint256",
          "internalType": "uint256"
        }
      ],
      "stateMutability": "view"
    },
    {
      "type": "function",
      "name": "getNominalICR",
      "inputs": [
        {
          "name": "_borrower",
          "type": "address",
          "internalType": "address"
        }
      ],
      "outputs": [
        {
          "name": "",
          "type": "uint256",
          "internalType": "uint256"
        }
      ],
      "stateMutability": "view"
    },
    {
      "type": "function",
      "name": "getPendingCollSharesAndDebtRewards",
      "inputs": [
        {
          "name": "_borrower",
          "type": "address",
          "internalType": "address"
        }
      ],
      "outputs": [
        {
          "name": "",
          "type": "uint256",
          "internalType": "uint256"
        },
        {
          "name": "",
          "type": "uint256",
          "internalType": "uint256"
        }
      ],
      "stateMutability": "view"
    },
    {
      "type": "function",
      "name": "getRedemptionFeeWithDecay",
      "inputs": [
        {
          "name": "_collateralDrawn",
          "type": "uint256",
          "internalType": "uint256"
        }
      ],
      "outputs": [
        {
          "name": "",
          "type": "uint256",
          "internalType": "uint256"
        }
      ],
      "stateMutability": "view"
    },
    {
      "type": "function",
      "name": "getRedemptionRate",
      "inputs": [],
      "outputs": [
        {
          "name": "",
          "type": "uint256",
          "internalType": "uint256"
        }
      ],
      "stateMutability": "view"
    },
    {
      "type": "function",
      "name": "getRedemptionRateWithDecay",
      "inputs": [],
      "outputs": [
        {
          "name": "",
          "type": "uint256",
          "internalType": "uint256"
        }
      ],
      "stateMutability": "view"
    },
    {
      "type": "function",
      "name": "getTotalActiveCollShares",
      "inputs": [],
      "outputs": [
        {
          "name": "",
          "type": "uint256",
          "internalType": "uint256"
        }
      ],
      "stateMutability": "view"
    },
    {
      "type": "function",
      "name": "getTotalActiveDebt",
      "inputs": [],
      "outputs": [
        {
          "name": "",
          "type": "uint256",
          "internalType": "uint256"
        }
      ],
      "stateMutability": "view"
    },
    {
      "type": "function",
      "name": "getTroveCollAndDebt",
      "inputs": [
        {
          "name": "_borrower",
          "type": "address",
          "internalType": "address"
        }
      ],
      "outputs": [
        {
          "name": "",
          "type": "uint256",
          "internalType": "uint256"
        },
        {
          "name": "",
          "type": "uint256",
          "internalType": "uint256"
        }
      ],
      "stateMutability": "nonpayable"
    },
    {
      "type": "function",
      "name": "getTroveCollSharesAndDebt",
      "inputs": [
        {
          "name": "_borrower",
          "type": "address",
          "internalType": "address"
        }
      ],
      "outputs": [
        {
          "name": "collShares",
          "type": "uint256",
          "internalType": "uint256"
        },
        {
          "name": "debt",
          "type": "uint256",
          "internalType": "uint256"
        }
      ],
      "stateMutability": "view"
    },
    {
      "type": "function",
      "name": "getTroveFromTroveOwnersArray",
      "inputs": [
        {
          "name": "_index",
          "type": "uint256",
          "internalType": "uint256"
        }
      ],
      "outputs": [
        {
          "name": "",
          "type": "address",
          "internalType": "address"
        }
      ],
      "stateMutability": "view"
    },
    {
      "type": "function",
      "name": "getTroveOwnersCount",
      "inputs": [],
      "outputs": [
        {
          "name": "",
          "type": "uint256",
          "internalType": "uint256"
        }
      ],
      "stateMutability": "view"
    },
    {
      "type": "function",
      "name": "getTroveStake",
      "inputs": [
        {
          "name": "_borrower",
          "type": "address",
          "internalType": "address"
        }
      ],
      "outputs": [
        {
          "name": "",
          "type": "uint256",
          "internalType": "uint256"
        }
      ],
      "stateMutability": "view"
    },
    {
      "type": "function",
      "name": "getTroveStatus",
      "inputs": [
        {
          "name": "_borrower",
          "type": "address",
          "internalType": "address"
        }
      ],
      "outputs": [
        {
          "name": "",
          "type": "uint256",
          "internalType": "uint256"
        }
      ],
      "stateMutability": "view"
    },
    {
      "type": "function",
      "name": "guardian",
      "inputs": [],
      "outputs": [
        {
          "name": "",
          "type": "address",
          "internalType": "address"
        }
      ],
      "stateMutability": "view"
    },
    {
      "type": "function",
      "name": "harvest",
      "inputs": [
        {
          "name": "data",
          "type": "bytes",
          "internalType": "bytes"
        }
      ],
      "outputs": [],
      "stateMutability": "nonpayable"
    },
    {
      "type": "function",
      "name": "harvestableBalance",
      "inputs": [],
      "outputs": [
        {
          "name": "",
          "type": "uint256",
          "internalType": "uint256"
        }
      ],
      "stateMutability": "view"
    },
    {
      "type": "function",
      "name": "hasPendingRewards",
      "inputs": [
        {
          "name": "_borrower",
          "type": "address",
          "internalType": "address"
        }
      ],
      "outputs": [
        {
          "name": "",
          "type": "bool",
          "internalType": "bool"
        }
      ],
      "stateMutability": "view"
    },
    {
      "type": "function",
      "name": "lastCollSharesError_Redistribution",
      "inputs": [],
      "outputs": [
        {
          "name": "",
          "type": "uint256",
          "internalType": "uint256"
        }
      ],
      "stateMutability": "view"
    },
    {
      "type": "function",
      "name": "lastDebtError_Redistribution",
      "inputs": [],
      "outputs": [
        {
          "name": "",
          "type": "uint256",
          "internalType": "uint256"
        }
      ],
      "stateMutability": "view"
    },
    {
      "type": "function",
      "name": "lastFeeOperationTime",
      "inputs": [],
      "outputs": [
        {
          "name": "",
          "type": "uint256",
          "internalType": "uint256"
        }
      ],
      "stateMutability": "view"
    },
    {
      "type": "function",
      "name": "liquidationManager",
      "inputs": [],
      "outputs": [
        {
          "name": "",
          "type": "address",
          "internalType": "address"
        }
      ],
      "stateMutability": "view"
    },
    {
      "type": "function",
      "name": "maxBorrowingFee",
      "inputs": [],
      "outputs": [
        {
          "name": "",
          "type": "uint256",
          "internalType": "uint256"
        }
      ],
      "stateMutability": "view"
    },
    {
      "type": "function",
      "name": "maxRedemptionFee",
      "inputs": [],
      "outputs": [
        {
          "name": "",
          "type": "uint256",
          "internalType": "uint256"
        }
      ],
      "stateMutability": "view"
    },
    {
      "type": "function",
      "name": "maxSystemDebt",
      "inputs": [],
      "outputs": [
        {
          "name": "",
          "type": "uint256",
          "internalType": "uint256"
        }
      ],
      "stateMutability": "view"
    },
    {
      "type": "function",
      "name": "minuteDecayFactor",
      "inputs": [],
      "outputs": [
        {
          "name": "",
          "type": "uint256",
          "internalType": "uint256"
        }
      ],
      "stateMutability": "view"
    },
    {
      "type": "function",
      "name": "movePendingTroveRewardsToActiveBalances",
      "inputs": [
        {
          "name": "_borrower",
          "type": "address",
          "internalType": "address"
        }
      ],
      "outputs": [],
      "stateMutability": "nonpayable"
    },
    {
      "type": "function",
      "name": "openTrove",
      "inputs": [
        {
          "name": "_borrower",
          "type": "address",
          "internalType": "address"
        },
        {
          "name": "_collateralAmount",
          "type": "uint256",
          "internalType": "uint256"
        },
        {
          "name": "_compositeDebt",
          "type": "uint256",
          "internalType": "uint256"
        },
        {
          "name": "_upperHint",
          "type": "address",
          "internalType": "address"
        },
        {
          "name": "_lowerHint",
          "type": "address",
          "internalType": "address"
        },
        {
          "name": "_isRecoveryMode",
          "type": "bool",
          "internalType": "bool"
        }
      ],
      "outputs": [
        {
          "name": "stake",
          "type": "uint256",
          "internalType": "uint256"
        },
        {
          "name": "arrayIndex",
          "type": "uint256",
          "internalType": "uint256"
        }
      ],
      "stateMutability": "nonpayable"
    },
    {
      "type": "function",
      "name": "owner",
      "inputs": [],
      "outputs": [
        {
          "name": "",
          "type": "address",
          "internalType": "address"
        }
      ],
      "stateMutability": "view"
    },
    {
      "type": "function",
      "name": "paused",
      "inputs": [],
      "outputs": [
        {
          "name": "",
          "type": "bool",
          "internalType": "bool"
        }
      ],
      "stateMutability": "view"
    },
    {
      "type": "function",
      "name": "preemptivelyHarvest",
      "inputs": [],
      "outputs": [],
      "stateMutability": "nonpayable"
    },
    {
      "type": "function",
      "name": "priceFeed",
      "inputs": [],
      "outputs": [
        {
          "name": "",
          "type": "address",
          "internalType": "contract IPriceFeed"
        }
      ],
      "stateMutability": "view"
    },
    {
      "type": "function",
      "name": "redeemCollateral",
      "inputs": [
        {
          "name": "_debtAmount",
          "type": "uint256",
          "internalType": "uint256"
        },
        {
          "name": "_firstRedemptionHint",
          "type": "address",
          "internalType": "address"
        },
        {
          "name": "_upperPartialRedemptionHint",
          "type": "address",
          "internalType": "address"
        },
        {
          "name": "_lowerPartialRedemptionHint",
          "type": "address",
          "internalType": "address"
        },
        {
          "name": "_partialRedemptionHintNICR",
          "type": "uint256",
          "internalType": "uint256"
        },
        {
          "name": "_maxIterations",
          "type": "uint256",
          "internalType": "uint256"
        },
        {
          "name": "_maxFeePercentage",
          "type": "uint256",
          "internalType": "uint256"
        }
      ],
      "outputs": [],
      "stateMutability": "nonpayable"
    },
    {
      "type": "function",
      "name": "redemptionFeeFloor",
      "inputs": [],
      "outputs": [
        {
          "name": "",
          "type": "uint256",
          "internalType": "uint256"
        }
      ],
      "stateMutability": "view"
    },
    {
      "type": "function",
      "name": "rewardSnapshots",
      "inputs": [
        {
          "name": "",
          "type": "address",
          "internalType": "address"
        }
      ],
      "outputs": [
        {
          "name": "collShares",
          "type": "uint256",
          "internalType": "uint256"
        },
        {
          "name": "debt",
          "type": "uint256",
          "internalType": "uint256"
        }
      ],
      "stateMutability": "view"
    },
    {
      "type": "function",
      "name": "setAddresses",
      "inputs": [
        {
          "name": "_priceFeedAddress",
          "type": "address",
          "internalType": "address"
        },
        {
          "name": "_sortedTrovesAddress",
          "type": "address",
          "internalType": "address"
        },
        {
          "name": "_collateralToken",
          "type": "address",
          "internalType": "address"
        }
      ],
      "outputs": [],
      "stateMutability": "nonpayable"
    },
    {
      "type": "function",
      "name": "setBorrowingFeeEnabled",
      "inputs": [
        {
          "name": "_enabled",
          "type": "bool",
          "internalType": "bool"
        }
      ],
      "outputs": [],
      "stateMutability": "nonpayable"
    },
    {
      "type": "function",
      "name": "setCollGasCompPercentage",
      "inputs": [
        {
          "name": "_collGasCompPercentage",
          "type": "uint256",
          "internalType": "uint256"
        }
      ],
      "outputs": [],
      "stateMutability": "nonpayable"
    },
    {
      "type": "function",
      "name": "setParameters",
      "inputs": [
        {
          "name": "_minuteDecayFactor",
          "type": "uint256",
          "internalType": "uint256"
        },
        {
          "name": "_redemptionFeeFloor",
          "type": "uint256",
          "internalType": "uint256"
        },
        {
          "name": "_maxRedemptionFee",
          "type": "uint256",
          "internalType": "uint256"
        },
        {
          "name": "_borrowingFeeFloor",
          "type": "uint256",
          "internalType": "uint256"
        },
        {
          "name": "_maxBorrowingFee",
          "type": "uint256",
          "internalType": "uint256"
        },
        {
          "name": "_maxSystemDebt",
          "type": "uint256",
          "internalType": "uint256"
        },
        {
          "name": "_MCR",
          "type": "uint256",
          "internalType": "uint256"
        },
        {
          "name": "_collGasCompPercentage",
          "type": "uint256",
          "internalType": "uint256"
        }
      ],
      "outputs": [],
      "stateMutability": "nonpayable"
    },
    {
      "type": "function",
      "name": "setPaused",
      "inputs": [
        {
          "name": "_paused",
          "type": "bool",
          "internalType": "bool"
        }
      ],
      "outputs": [],
      "stateMutability": "nonpayable"
    },
    {
      "type": "function",
      "name": "setPriceFeed",
      "inputs": [
        {
          "name": "_priceFeedAddress",
          "type": "address",
          "internalType": "address"
        }
      ],
      "outputs": [],
      "stateMutability": "nonpayable"
    },
    {
      "type": "function",
      "name": "sortedTroves",
      "inputs": [],
      "outputs": [
        {
          "name": "",
          "type": "address",
          "internalType": "contract ISortedTroves"
        }
      ],
      "stateMutability": "view"
    },
    {
      "type": "function",
      "name": "startSunset",
      "inputs": [],
      "outputs": [],
      "stateMutability": "nonpayable"
    },
    {
      "type": "function",
      "name": "sunsetting",
      "inputs": [],
      "outputs": [
        {
          "name": "",
          "type": "bool",
          "internalType": "bool"
        }
      ],
      "stateMutability": "view"
    },
    {
      "type": "function",
      "name": "surplusCollShares",
      "inputs": [
        {
          "name": "",
          "type": "address",
          "internalType": "address"
        }
      ],
      "outputs": [
        {
          "name": "",
          "type": "uint256",
          "internalType": "uint256"
        }
      ],
      "stateMutability": "view"
    },
    {
      "type": "function",
      "name": "systemDeploymentTime",
      "inputs": [],
      "outputs": [
        {
          "name": "",
          "type": "uint256",
          "internalType": "uint256"
        }
      ],
      "stateMutability": "view"
    },
    {
      "type": "function",
      "name": "totalActiveCollBalance",
      "inputs": [],
      "outputs": [
        {
          "name": "",
          "type": "uint256",
          "internalType": "uint256"
        }
      ],
      "stateMutability": "view"
    },
    {
      "type": "function",
      "name": "totalActiveCollShares",
      "inputs": [],
      "outputs": [
        {
          "name": "",
          "type": "uint256",
          "internalType": "uint256"
        }
      ],
      "stateMutability": "view"
    },
    {
      "type": "function",
      "name": "totalActiveDebt",
      "inputs": [],
      "outputs": [
        {
          "name": "",
          "type": "uint256",
          "internalType": "uint256"
        }
      ],
      "stateMutability": "view"
    },
    {
      "type": "function",
      "name": "totalCollExpectedValue",
      "inputs": [],
      "outputs": [
        {
          "name": "",
          "type": "uint256",
          "internalType": "uint256"
        }
      ],
      "stateMutability": "view"
    },
    {
      "type": "function",
      "name": "totalCollShares",
      "inputs": [],
      "outputs": [
        {
          "name": "",
          "type": "uint256",
          "internalType": "uint256"
        }
      ],
      "stateMutability": "view"
    },
    {
      "type": "function",
      "name": "totalStakes",
      "inputs": [],
      "outputs": [
        {
          "name": "",
          "type": "uint256",
          "internalType": "uint256"
        }
      ],
      "stateMutability": "view"
    },
    {
      "type": "function",
      "name": "totalStakesSnapshot",
      "inputs": [],
      "outputs": [
        {
          "name": "",
          "type": "uint256",
          "internalType": "uint256"
        }
      ],
      "stateMutability": "view"
    },
    {
      "type": "function",
      "name": "totalSystemCollSharesSnapshot",
      "inputs": [],
      "outputs": [
        {
          "name": "",
          "type": "uint256",
          "internalType": "uint256"
        }
      ],
      "stateMutability": "view"
    },
    {
      "type": "function",
      "name": "updateTroveFromAdjustment",
      "inputs": [
        {
          "name": "_isRecoveryMode",
          "type": "bool",
          "internalType": "bool"
        },
        {
          "name": "_isDebtIncrease",
          "type": "bool",
          "internalType": "bool"
        },
        {
          "name": "_debtChange",
          "type": "uint256",
          "internalType": "uint256"
        },
        {
          "name": "_netDebtChange",
          "type": "uint256",
          "internalType": "uint256"
        },
        {
          "name": "_isCollIncrease",
          "type": "bool",
          "internalType": "bool"
        },
        {
          "name": "_collChange",
          "type": "uint256",
          "internalType": "uint256"
        },
        {
          "name": "_upperHint",
          "type": "address",
          "internalType": "address"
        },
        {
          "name": "_lowerHint",
          "type": "address",
          "internalType": "address"
        },
        {
          "name": "_borrower",
          "type": "address",
          "internalType": "address"
        },
        {
          "name": "_receiver",
          "type": "address",
          "internalType": "address"
        }
      ],
      "outputs": [],
      "stateMutability": "nonpayable"
    },
    {
      "type": "event",
      "name": "BaseRateUpdated",
      "inputs": [
        {
          "name": "_baseRate",
          "type": "uint256",
          "indexed": false,
          "internalType": "uint256"
        }
      ],
      "anonymous": false
    },
    {
      "type": "event",
      "name": "BorrowingFeeEnabledChanged",
      "inputs": [
        {
          "name": "enabled",
          "type": "bool",
          "indexed": false,
          "internalType": "bool"
        }
      ],
      "anonymous": false
    },
    {
      "type": "event",
      "name": "CollateralSent",
      "inputs": [
        {
          "name": "_to",
          "type": "address",
          "indexed": false,
          "internalType": "address"
        },
        {
          "name": "_amount",
          "type": "uint256",
          "indexed": false,
          "internalType": "uint256"
        }
      ],
      "anonymous": false
    },
    {
      "type": "event",
      "name": "LTermsUpdated",
      "inputs": [
        {
          "name": "_L_collShares",
          "type": "uint256",
          "indexed": false,
          "internalType": "uint256"
        },
        {
          "name": "_L_debt",
          "type": "uint256",
          "indexed": false,
          "internalType": "uint256"
        }
      ],
      "anonymous": false
    },
    {
      "type": "event",
      "name": "LastFeeOpTimeUpdated",
      "inputs": [
        {
          "name": "_lastFeeOpTime",
          "type": "uint256",
          "indexed": false,
          "internalType": "uint256"
        }
      ],
      "anonymous": false
    },
    {
      "type": "event",
      "name": "Redemption",
      "inputs": [
        {
          "name": "_attemptedDebtAmount",
          "type": "uint256",
          "indexed": false,
          "internalType": "uint256"
        },
        {
          "name": "_actualDebtAmount",
          "type": "uint256",
          "indexed": false,
          "internalType": "uint256"
        },
        {
          "name": "_collateralSent",
          "type": "uint256",
          "indexed": false,
          "internalType": "uint256"
        },
        {
          "name": "_collateralFee",
          "type": "uint256",
          "indexed": false,
          "internalType": "uint256"
        }
      ],
      "anonymous": false
    },
    {
      "type": "event",
      "name": "SystemSnapshotsUpdated",
      "inputs": [
        {
          "name": "_totalStakesSnapshot",
          "type": "uint256",
          "indexed": false,
          "internalType": "uint256"
        },
        {
          "name": "_totalSystemCollSharesSnapshot",
          "type": "uint256",
          "indexed": false,
          "internalType": "uint256"
        }
      ],
      "anonymous": false
    },
    {
      "type": "event",
      "name": "TotalStakesUpdated",
      "inputs": [
        {
          "name": "_newTotalStakes",
          "type": "uint256",
          "indexed": false,
          "internalType": "uint256"
        }
      ],
      "anonymous": false
    },
    {
      "type": "event",
      "name": "TroveIndexUpdated",
      "inputs": [
        {
          "name": "_borrower",
          "type": "address",
          "indexed": false,
          "internalType": "address"
        },
        {
          "name": "_newIndex",
          "type": "uint256",
          "indexed": false,
          "internalType": "uint256"
        }
      ],
      "anonymous": false
    },
    {
      "type": "event",
      "name": "TroveSnapshotsUpdated",
      "inputs": [
        {
          "name": "_L_collShares",
          "type": "uint256",
          "indexed": false,
          "internalType": "uint256"
        },
        {
          "name": "_L_debt",
          "type": "uint256",
          "indexed": false,
          "internalType": "uint256"
        }
      ],
      "anonymous": false
    },
    {
      "type": "event",
      "name": "TroveUpdated",
      "inputs": [
        {
          "name": "_borrower",
          "type": "address",
          "indexed": true,
          "internalType": "address"
        },
        {
          "name": "_debt",
          "type": "uint256",
          "indexed": false,
          "internalType": "uint256"
        },
        {
          "name": "_collShares",
          "type": "uint256",
          "indexed": false,
          "internalType": "uint256"
        },
        {
          "name": "_stake",
          "type": "uint256",
          "indexed": false,
          "internalType": "uint256"
        },
        {
          "name": "_operation",
          "type": "uint8",
          "indexed": false,
          "internalType": "enum TroveManager.TroveManagerOperation"
        }
      ],
      "anonymous": false
    },
    {
      "type": "error",
      "name": "AddressEmptyCode",
      "inputs": [
        {
          "name": "target",
          "type": "address",
          "internalType": "address"
        }
      ]
    },
    {
      "type": "error",
      "name": "AddressInsufficientBalance",
      "inputs": [
        {
          "name": "account",
          "type": "address",
          "internalType": "address"
        }
      ]
    },
    {
      "type": "error",
      "name": "FailedInnerCall",
      "inputs": []
    },
    {
      "type": "error",
      "name": "SafeERC20FailedOperation",
      "inputs": [
        {
          "name": "token",
          "type": "address",
          "internalType": "address"
        }
      ]
    }
  ],
  "bytecode": {
    "object": "0x6101006040523480156200001257600080fd5b5060405162004d3538038062004d35833981016040819052620000359162000075565b6001600160a01b0393841660805291831660e052821660a0521660c052620000d2565b80516001600160a01b03811681146200007057600080fd5b919050565b600080600080608085870312156200008c57600080fd5b620000978562000058565b9350620000a76020860162000058565b9250620000b76040860162000058565b9150620000c76060860162000058565b905092959194509250565b60805160a05160c05160e051614b7a620001bb60003960008181610ba001528181612417015281816129490152818161383d01526138c501526000818161063001528181610f14015281816119a201528181611f6101528181612a73015261300b015260008181610a1001528181610c470152818161153801528181611bb50152818161213d015281816122e001528181612bef0152613c26015260008181610aa601528181610cb601528181610d6d01528181610fce01528181611416015281816118c501528181611b4e01528181611fbf015281816128210152612e4c0152614b7a6000f3fe608060405234801561001057600080fd5b50600436106105305760003560e01c80638235b284116102af578063c35bc55011610172578063d380a37c116100d9578063e31b5fa711610092578063e31b5fa714610b64578063e47cf0c314610b77578063e9186c9414610b80578063f36b242514610b93578063f8d8989814610b9b578063fd7a687d14610bc257600080fd5b8063d380a37c14610b12578063d5b3563514610b1b578063d9a7244414610b2e578063df8a902f14610b41578063e28478df14610b49578063e2ac77b014610b5157600080fd5b8063cc9641a81161012b578063cc9641a814610aa1578063cce4ce9514610ac8578063ce5c7f6114610ad1578063ce84129214610ae4578063d128080c14610af7578063d293c71014610aff57600080fd5b8063c35bc55014610a57578063c52861f214610a61578063c5dd9d9a14610a69578063c88be9d214610a7c578063c9a4cbf114610a85578063cb26755514610a9857600080fd5b8063a635443011610216578063b2f29d7b116101cf578063b2f29d7b146109f0578063b341c5fc14610a03578063b7f8cf9b14610a0b578063bc006c3814610a32578063bcd3752614610a3b578063bf9befb114610a4e57600080fd5b8063a635443014610968578063a92a234d1461097b578063ae918754146109ae578063b045ebe1146109c1578063b0d8e181146109ca578063b2016bd4146109dd57600080fd5b80639484fb8e116102685780639484fb8e146109115780639e5033ea1461091e5780639ed7254214610927578063a20baee614610930578063a54cd6fc1461093f578063a5b34e5d1461094857600080fd5b80638235b284146108bf578063887105d3146108d25780638da5cb5b146108da5780638e415ea8146108e257806391245f9f146108f55780639211d1af146108fe57600080fd5b80633d05f7e3116103f757806364cee2601161035e578063789c6b9311610317578063789c6b9314610876578063794e572414610889578063795d26c3146108925780637a3a91f01461089a5780637e95d664146108ad578063807d138d146108b657600080fd5b806364cee260146107ba57806366ca4a21146107e65780636ef64338146107ee578063720fbe2c14610847578063724e78da14610850578063741bef1a1461086357600080fd5b80634adc8d43116103b05780634adc8d43146107615780634be09491146107745780635598172f1461077d5780635733d58f146107865780635c975abb14610795578063631203b0146107a757600080fd5b80633d05f7e31461070f5780634056d9fc14610722578063452a93201461072b5780634610f14514610733578063477d66cf1461074657806349eefeee1461075957600080fd5b806320d17d7b1161049b5780632b37696c116104545780632b37696c146106c55780632f5c83a8146106ce57806331c7a261146106d757806334ba3c71146106e0578063363bf964146106f3578063373420d91461070657600080fd5b806320d17d7b1461067357806321e378011461067c57806325019ee91461068f57806327fbd6ba146106a25780632b11551a146106aa5780632b2b2bac146106b257600080fd5b80630cea32fa116104ed5780630cea32fa146105d45780631289fefb146105e95780631673c79a146105f157806316c38b3c146106185780631ef3a04c1461062b5780631f68f20a1461066a57600080fd5b8063012031121461053557806301c799fc14610557578063055b03321461057a57806307ec20901461059157806308fdb61b146105995780630b076557146105ac575b600080fd5b6022546105429060ff1681565b60405190151581526020015b60405180910390f35b61055f610bd5565b6040805193845260208401929092529082015260600161054e565b61058360215481565b60405190815260200161054e565b601554610583565b6105836105a7366004614467565b610bfd565b6105bf6105ba366004614495565b610c39565b6040805192835260208301919091520161054e565b6105e76105e2366004614467565b610cb4565b005b6105e7610d6b565b6105bf6105ff366004614495565b601b602052600090815260409020805460019091015482565b6105e76106263660046144c0565b610e36565b6106527f000000000000000000000000000000000000000000000000000000000000000081565b6040516001600160a01b03909116815260200161054e565b610583600c5481565b61058360185481565b61058361068a366004614495565b610ed3565b6105e761069d366004614495565b610f09565b610583610fba565b6105836110c8565b6105bf6106c0366004614495565b6110da565b610583601e5481565b61058360095481565b61058360075481565b6105e76106ee3660046144dd565b611106565b6105e7610701366004614532565b61129f565b610583601f5481565b6105bf61071d366004614495565b6112f8565b61058360085481565b610652611412565b610583610741366004614467565b611496565b610583610754366004614467565b6114c9565b601c54610583565b6105bf61076f36600461457d565b6114dc565b61058360115481565b61058360165481565b6105836714d1120d7b16000081565b600b5461054290610100900460ff1681565b6105836107b5366004614467565b6118a4565b6105836107c8366004614495565b6001600160a01b031660009081526019602052604090206002015490565b6105836118b1565b6108366107fc366004614495565b60196020526000908152604090208054600182015460028301546003909301549192909160ff81169061010090046001600160801b031685565b60405161054e959493929190614621565b610583600a5481565b6105e761085e366004614495565b6118c3565b600054610652906001600160a01b031681565b6105e761088436600461465e565b611997565b61058360035481565b610583611a21565b6105836108a8366004614467565b611a35565b61058360055481565b610583600f5481565b6105e76108cd366004614495565b611a55565b610583611b3d565b610652611b4a565b6105e76108f036600461468a565b611baa565b61058360065481565b6105e761090c366004614495565b611f56565b600b546105429060ff1681565b61058360175481565b61058360145481565b610583670de0b6b3a764000081565b61058360155481565b610583610956366004614495565b601a6020526000908152604090205481565b6105e76109763660046144c0565b611fbd565b61098e610989366004614495565b6120b7565b60408051948552602085019390935291830152606082015260800161054e565b600254610652906001600160a01b031681565b61058360105481565b6105836109d8366004614495565b612109565b600154610652906001600160a01b031681565b6105836109fe366004614467565b612130565b610583612198565b6106527f000000000000000000000000000000000000000000000000000000000000000081565b61058360045481565b6105e7610a4936600461473f565b6121aa565b610583600e5481565b6105836212750081565b610583612a56565b6105e7610a773660046147ad565b612a68565b61058360205481565b6105e7610a933660046147f1565b612be4565b61058360135481565b6106527f000000000000000000000000000000000000000000000000000000000000000081565b610583601d5481565b6105e7610adf366004614837565b612da7565b6105bf610af2366004614495565b612db3565b601654610583565b610583610b0d36600461465e565b612dcc565b610583600d5481565b610583610b29366004614467565b612df5565b610652610b3c366004614467565b612e08565b610583612e38565b6105e7612f01565b610542610b5f366004614495565b612f7d565b610583610b72366004614467565b612fe0565b61058360125481565b6105e7610b8e3660046148a9565b613000565b6105836130e0565b6106527f000000000000000000000000000000000000000000000000000000000000000081565b610583610bd0366004614467565b6130ed565b6000806000610be2611b3d565b610bea611a21565b610bf2612e38565b925092509250909192565b600080610c08613104565b905080600003610c19575090919050565b8060205484610c2891906148f4565b610c329190614921565b9392505050565b600080336001600160a01b037f00000000000000000000000000000000000000000000000000000000000000001614610c8d5760405162461bcd60e51b8152600401610c8490614935565b60405180910390fd5b600080610c9985613169565b915091506000610ca883611496565b94509092505050915091565b7f00000000000000000000000000000000000000000000000000000000000000006001600160a01b0316638da5cb5b6040518163ffffffff1660e01b8152600401602060405180830381865afa158015610d12573d6000803e3d6000fd5b505050506040513d601f19601f82011682018060405250810190610d36919061495c565b6001600160a01b0316336001600160a01b031614610d665760405162461bcd60e51b8152600401610c8490614979565b602155565b7f00000000000000000000000000000000000000000000000000000000000000006001600160a01b0316638da5cb5b6040518163ffffffff1660e01b8152600401602060405180830381865afa158015610dc9573d6000803e3d6000fd5b505050506040513d601f19601f82011682018060405250810190610ded919061495c565b6001600160a01b0316336001600160a01b031614610e1d5760405162461bcd60e51b8152600401610c8490614979565b600b805460ff1916600117905560006005819055600955565b808015610e5b5750610e46611412565b6001600160a01b0316336001600160a01b0316145b80610e7e5750610e69611b4a565b6001600160a01b0316336001600160a01b0316145b610eb95760405162461bcd60e51b815260206004820152600c60248201526b155b985d5d1a1bdc9a5e995960a21b6044820152606401610c84565b600b80549115156101000261ff0019909216919091179055565b6001600160a01b03811660009081526019602052604081206003015460ff166004811115610f0357610f036145ed565b92915050565b336001600160a01b037f00000000000000000000000000000000000000000000000000000000000000001614610f515760405162461bcd60e51b8152600401610c849061499d565b6001600160a01b038116600090815260196020526040902054610f738261322d565b610f7e826003613278565b816001600160a01b0316600080516020614b2583398151915260008060006003604051610fae94939291906149d4565b60405180910390a25050565b600080546001600160a01b031680611051577f00000000000000000000000000000000000000000000000000000000000000006001600160a01b031663741bef1a6040518163ffffffff1660e01b8152600401602060405180830381865afa15801561102a573d6000803e3d6000fd5b505050506040513d601f19601f8201168201806040525081019061104e919061495c565b90505b600154604051635670bcc760e11b81526001600160a01b0391821660048201529082169063ace1798e906024015b6020604051808303816000875af115801561109e573d6000803e3d6000fd5b505050506040513d601f19601f820116820180604052508101906110c29190614a01565b91505090565b60006110d5600c5461350c565b905090565b6000806000806110e9856120b7565b50509150915060006110fa82611496565b96929550919350505050565b600b5460ff16156111595760405162461bcd60e51b815260206004820152601a60248201527f43616e6e6f74206368616e67652061667465722073756e7365740000000000006044820152606401610c84565b6714d1120d7b16000082111580156111795750670f43fc2c04ee00008210155b6111c55760405162461bcd60e51b815260206004820152601d60248201527f4d43522063616e6e6f74206265203e20434352206f72203c20313130250000006044820152606401610c84565b60045415611205576111d5611b4a565b6001600160a01b0316336001600160a01b0316146112055760405162461bcd60e51b8152600401610c8490614979565b670d8f91d067414d8888101580156112255750670de07829b2adec288811155b61122e57600080fd5b8587111580156112465750670de0b6b3a76400008611155b61124f57600080fd5b8385111580156112675750670de0b6b3a76400008411155b61127057600080fd5b611278613527565b50600497909755600595909555600693909355600791909155600855600955600355602155565b6002546001600160a01b0316156112b557600080fd5b600080546001600160a01b039485166001600160a01b03199182161790915560028054938516938216939093179092556001805491909316911617905542600a55565b6001600160a01b0381166000908152601b6020908152604080832081518083019092528054808352600190910154928201929092526011548392839161133e9190614a1a565b9050600082602001516012546113549190614a1a565b90506113608183614a2d565b158061139c575060016001600160a01b03871660009081526019602052604090206003015460ff166004811115611399576113996145ed565b14155b156113af57506000958695509350505050565b6001600160a01b038616600090815260196020526040902060020154670de0b6b3a76400006113de84836148f4565b6113e89190614921565b670de0b6b3a76400006113fb84846148f4565b6114059190614921565b9550955050505050915091565b60007f00000000000000000000000000000000000000000000000000000000000000006001600160a01b031663452a93206040518163ffffffff1660e01b8152600401602060405180830381865afa158015611472573d6000803e3d6000fd5b505050506040513d601f19601f820116820180604052508101906110d5919061495c565b60006020546000036114aa57506000919050565b6020546114b5613104565b6114bf90846148f4565b610f039190614921565b6000610f036114d66118b1565b8361357a565b600b546000908190610100900460ff161561152d5760405162461bcd60e51b815260206004820152601160248201527010dbdb1b185d195c985b0814185d5cd959607a1b6044820152606401610c84565b336001600160a01b037f000000000000000000000000000000000000000000000000000000000000000016146115755760405162461bcd60e51b8152600401610c8490614935565b600b5460ff16156115c85760405162461bcd60e51b815260206004820152601c60248201527f43616e6e6f74206f70656e207768696c652073756e73657474696e67000000006044820152606401610c84565b6115d0612f01565b6016546001600160a01b03891660009081526019602052604090206001600382015460ff166004811115611606576116066145ed565b036116535760405162461bcd60e51b815260206004820152601c60248201527f426f72726f7765724f70733a2054726f766520697320616374697665000000006044820152606401610c84565b600061165e8a610bfd565b9050600061166c828b61358f565b60038401805460ff1916600190811790915584018390558a845590506116918c6135c5565b61169a8361363e565b6002546040516346f7cf8760e01b81529197506001600160a01b0316906346f7cf87906116d1908f9085908e908e90600401614a40565b600060405180830381600087803b1580156116eb57600080fd5b505af11580156116ff573d6000803e3d6000fd5b50505050601c8c9080600181540180825580915050600190039060005260206000200160009091909190916101000a8154816001600160a01b0302191690836001600160a01b031602179055506001601c8054905061175e9190614a1a565b600384018054610100600160881b0319166101006001600160801b038416021790559450600061178d8c612fe0565b905080601d60008282546117a19190614a2d565b925050819055508b601e60008282546117ba9190614a2d565b9250508190555082602060008282546117d39190614a2d565b90915550506015546117e6908490614a2d565b60155560006117f58c87614a2d565b9050600954601854826118089190614a2d565b11156118565760405162461bcd60e51b815260206004820152601d60248201527f436f6c6c61746572616c2064656274206c696d697420726561636865640000006044820152606401610c84565b806016819055508d6001600160a01b0316600080516020614b258339815191528d868b600060405161188b94939291906149d4565b60405180910390a2505050505050965096945050505050565b6000610f036114d66130e0565b60006110d56118be6136bd565b613714565b7f00000000000000000000000000000000000000000000000000000000000000006001600160a01b0316638da5cb5b6040518163ffffffff1660e01b8152600401602060405180830381865afa158015611921573d6000803e3d6000fd5b505050506040513d601f19601f82011682018060405250810190611945919061495c565b6001600160a01b0316336001600160a01b0316146119755760405162461bcd60e51b8152600401610c8490614979565b600080546001600160a01b0319166001600160a01b0392909216919091179055565b336001600160a01b037f000000000000000000000000000000000000000000000000000000000000000016146119df5760405162461bcd60e51b8152600401610c849061499d565b60006119ea82610bfd565b6001600160a01b0384166000908152601a6020526040812080549293508392909190611a17908490614a2d565b9091555050505050565b601654601854600091906110c29082614a2d565b600080611a40610fba565b905080610c28670de0b6b3a7640000856148f4565b611a5d612f01565b336000908152601a602052604090205480611aba5760405162461bcd60e51b815260206004820181905260248201527f4e6f20636f6c6c61746572616c20617661696c61626c6520746f20636c61696d6044820152606401610c84565b6000611ac582611496565b90506000611ad282612fe0565b905080601d6000828254611ae69190614a1a565b9250508190555081601e6000828254611aff9190614a1a565b925050819055508260206000828254611b189190614a1a565b9091555050336000908152601a6020526040812055611b378483613742565b50505050565b60006110d5610741612198565b60007f00000000000000000000000000000000000000000000000000000000000000006001600160a01b0316638da5cb5b6040518163ffffffff1660e01b8152600401602060405180830381865afa158015611472573d6000803e3d6000fd5b336001600160a01b037f00000000000000000000000000000000000000000000000000000000000000001614611bf25760405162461bcd60e51b8152600401610c8490614935565b8580611bfb5750885b15611c9f57600b54610100900460ff1615611c4c5760405162461bcd60e51b815260206004820152601160248201527010dbdb1b185d195c985b0814185d5cd959607a1b6044820152606401610c84565b600b5460ff1615611c9f5760405162461bcd60e51b815260206004820181905260248201527f43616e6e6f7420696e637265617365207768696c652073756e73657474696e676044820152606401610c84565b611ca7612f01565b6001600160a01b03821660009081526019602052604090206001600382015460ff166004811115611cda57611cda6145ed565b14611d275760405162461bcd60e51b815260206004820152601e60248201527f54726f766520636c6f736564206f7220646f6573206e6f7420657869737400006044820152606401610c84565b80548915611d6b578a15611d5157611d3f8982614a2d565b9050611d4c838a8c6137a1565b611d67565b611d5b8982614a1a565b9050611d67838b61389f565b8082555b60018201548715611e8d576000611d8189610bfd565b90506000611d8e8a612fe0565b90508a15611e0a57611da08284614a2d565b925080601d6000828254611db49190614a2d565b9250508190555089601e6000828254611dcd9190614a2d565b925050819055508160206000828254611de69190614a2d565b925050819055508160156000828254611dff9190614a2d565b90915550611e839050565b611e148284614a1a565b925080601d6000828254611e289190614a1a565b9250508190555089601e6000828254611e419190614a1a565b925050819055508160206000828254611e5a9190614a1a565b925050819055508160156000828254611e739190614a1a565b90915550611e839050868b613742565b5050600183018190555b6000611e99828461358f565b60025460405163015f109360e51b81529192506001600160a01b031690632be2126090611ed090899085908d908d90600401614a40565b600060405180830381600087803b158015611eea57600080fd5b505af1158015611efe573d6000803e3d6000fd5b505050506000611f0d8561363e565b9050866001600160a01b0316600080516020614b258339815191528585846002604051611f3d94939291906149d4565b60405180910390a2505050505050505050505050505050565b336001600160a01b037f00000000000000000000000000000000000000000000000000000000000000001614611f9e5760405162461bcd60e51b8152600401610c849061499d565b600080611faa836112f8565b91509150611fb88183613936565b505050565b7f00000000000000000000000000000000000000000000000000000000000000006001600160a01b0316638da5cb5b6040518163ffffffff1660e01b8152600401602060405180830381865afa15801561201b573d6000803e3d6000fd5b505050506040513d601f19601f8201168201806040525081019061203f919061495c565b6001600160a01b0316336001600160a01b03161461206f5760405162461bcd60e51b8152600401610c8490614979565b6022805460ff19168215159081179091556040519081527f5ab1bb54e12d4eab6709972a8b6c80007c3758e4e60cac4a8f76db802cd21a74906020015b60405180910390a150565b6001600160a01b0381166000908152601960205260408120805460018201549092909181906120e5866112f8565b935091506120f38386614a2d565b94506120ff8285614a2d565b9350509193509193565b600080600061211784612db3565b915091506000612127838361358f565b95945050505050565b6000336001600160a01b037f0000000000000000000000000000000000000000000000000000000000000000161461217a5760405162461bcd60e51b8152600401610c8490614935565b6000612184613527565b9050610c3261219282613714565b8461357a565b60006017546015546110d59190614a2d565b6000600260009054906101000a90046001600160a01b0316905061221a604051806101400160405280600081526020016000815260200160008152602001600081526020016000815260200160008152602001600081526020016000815260200160008152602001600081525090565b600554831015801561222e57506006548311155b6122715760405162461bcd60e51b81526020600482015260146024820152734d61782066656520302e352520746f203130302560601b6044820152606401610c84565b62127500600a546122829190614a2d565b4210156122c45760405162461bcd60e51b815260206004820152601060248201526f1093d3d514d514905417d411549253d160821b6044820152606401610c84565b6122cc612e38565b8161010001818152505060006003549050807f00000000000000000000000000000000000000000000000000000000000000006001600160a01b031663b620115d6040518163ffffffff1660e01b81526004016020604051808303816000875af115801561233e573d6000803e3d6000fd5b505050506040513d601f19601f820116820180604052508101906123629190614a01565b10156123b05760405162461bcd60e51b815260206004820152601c60248201527f43616e6e6f742072656465656d207768656e20544352203c204d4352000000006044820152606401610c84565b60008a116124005760405162461bcd60e51b815260206004820181905260248201527f416d6f756e74206d7573742062652067726561746572207468616e207a65726f6044820152606401610c84565b6040516370a0823160e01b81523360048201528a907f00000000000000000000000000000000000000000000000000000000000000006001600160a01b0316906370a0823190602401602060405180830381865afa158015612466573d6000803e3d6000fd5b505050506040513d601f19601f8201168201806040525081019061248a9190614a01565b10156124cf5760405162461bcd60e51b8152602060048201526014602482015273496e73756666696369656e742062616c616e636560601b6044820152606401610c84565b6124d7612f01565b6124df611a21565b6101208301528982526101008201516000906124ff9085908c9085613993565b1561250b57508861260b565b836001600160a01b0316634d6228316040518163ffffffff1660e01b8152600401602060405180830381865afa158015612549573d6000803e3d6000fd5b505050506040513d601f19601f8201168201806040525081019061256d919061495c565b90505b6001600160a01b0381161580159061259557508161259382856101000151612dcc565b105b1561260b57604051632dc9c0eb60e21b81526001600160a01b03828116600483015285169063b72703ac90602401602060405180830381865afa1580156125e0573d6000803e3d6000fd5b505050506040513d601f19601f82011682018060405250810190612604919061495c565b9050612570565b856000036126195760001995505b6001600160a01b038116158015906126315750825115155b801561263d5750600086115b1561275e578561264c81614a6b565b604051632dc9c0eb60e21b81526001600160a01b038481166004830152919850600092509086169063b72703ac90602401602060405180830381865afa15801561269a573d6000803e3d6000fd5b505050506040513d601f19601f820116820180604052508101906126be919061495c565b90506126c982613169565b505060006126e5868487600001518861010001518f8f8f613acc565b90508060600151156126f857505061275e565b805160208601805161270b908390614a2d565b9052506020810151604086018051612724908390614a2d565b905250604081015160608601805161273d908390614a2d565b905250805185518690612751908390614a1a565b9052509091506126199050565b60008360400151116127b25760405162461bcd60e51b815260206004820152601b60248201527f556e61626c6520746f2072656465656d20616e7920616d6f756e7400000000006044820152606401610c84565b6127cb8360400151846101000151856101200151613d84565b506127d98360400151612fe0565b6080840152600b5460ff16612802576127fd6127f36110c8565b8460400151613e18565b612805565b60005b60a08401819052604084015161281c919087613e89565b6128ab7f00000000000000000000000000000000000000000000000000000000000000006001600160a01b031663b3f006746040518163ffffffff1660e01b8152600401602060405180830381865afa15801561287d573d6000803e3d6000fd5b505050506040513d601f19601f820116820180604052508101906128a1919061495c565b8460a00151613742565b8260a0015183604001516128bf9190614a1a565b8360c00181815250507f43a3f4082a4dbc33d78e317d2497d3a730bc7fc3574159dcea1056e62e5d9ad88b846020015185604001518660a0015160405161291f949392919093845260208401929092526040830152606082015260800190565b60405180910390a16020830151604051632770a7eb60e21b815233600482015260248101919091527f00000000000000000000000000000000000000000000000000000000000000006001600160a01b031690639dc29fac90604401600060405180830381600087803b15801561299557600080fd5b505af11580156129a9573d6000803e3d6000fd5b50505060208401516016546129be9250614a1a565b6016556080830151601d80546000906129d8908490614a1a565b90915550506040830151601e80546000906129f4908490614a1a565b9091555050606083015160208054600090612a10908490614a1a565b9091555050606083015160158054600090612a2c908490614a1a565b92505081905550612a41338460c00151613742565b612a49613efa565b5050505050505050505050565b60006110d5612a636136bd565b61350c565b336001600160a01b037f00000000000000000000000000000000000000000000000000000000000000001614612ab05760405162461bcd60e51b8152600401610c849061499d565b6000612abb84610bfd565b90506000612ac883610bfd565b9050612ad48683613f4d565b6015548415612afd576000612ae886610bfd565b9050612af48183614a1a565b60158190559150505b600e54600f55601754612b108383614a1a565b612b1a9190614a2d565b6010819055600f546040517f51bf4c63ec3cba9d03d43238abbdd979dd91bd16d9895c74ceea9118c7baaf6092612b58928252602082015260400190565b60405180910390a1612b6a8885613742565b6000612b7585612fe0565b905080601d6000828254612b899190614a1a565b9250508190555084601e6000828254612ba29190614a1a565b925050819055508260206000828254612bbb9190614a1a565b925050819055508260156000828254612bd49190614a1a565b9091555050505050505050505050565b336001600160a01b037f00000000000000000000000000000000000000000000000000000000000000001614612c2c5760405162461bcd60e51b8152600401610c8490614935565b60016001600160a01b03851660009081526019602052604090206003015460ff166004811115612c5e57612c5e6145ed565b14612cab5760405162461bcd60e51b815260206004820152601e60248201527f54726f766520636c6f736564206f7220646f6573206e6f7420657869737400006044820152606401610c84565b612cb3612f01565b612cbc8461322d565b612cc7846002613278565b80601654612cd59190614a1a565b601655612ce28383613742565b6000612ced83610bfd565b90506000612cfa84612fe0565b905080601d6000828254612d0e9190614a1a565b9250508190555083601e6000828254612d279190614a1a565b925050819055508160206000828254612d409190614a1a565b925050819055508160156000828254612d599190614a1a565b90915550612d679050613efa565b856001600160a01b0316600080516020614b2583398151915260008060006001604051612d9794939291906149d4565b60405180910390a2505050505050565b612daf612f01565b5050565b600080612dbf836120b7565b5090959194509092505050565b6000806000612dda856110da565b915091506000612deb8383876140b6565b9695505050505050565b6000610f03612e02612a56565b83613e18565b6000601c8281548110612e1d57612e1d614a82565b6000918252602090912001546001600160a01b031692915050565b600080546001600160a01b031680612ecf577f00000000000000000000000000000000000000000000000000000000000000006001600160a01b031663741bef1a6040518163ffffffff1660e01b8152600401602060405180830381865afa158015612ea8573d6000803e3d6000fd5b505050506040513d601f19601f82011682018060405250810190612ecc919061495c565b90505b60015460405163371412fb60e11b81526001600160a01b03918216600482015290821690636e2825f69060240161107f565b601e54600003612f0d57565b6000612f1a601e54612fe0565b9050601d548111612f285750565b6000612f3b601d54836108a89190614a1a565b905080600003612f49575050565b80601e6000828254612f5b9190614a1a565b9250508190555080601f6000828254612f749190614a2d565b90915550505050565b600060016001600160a01b03831660009081526019602052604090206003015460ff166004811115612fb157612fb16145ed565b14612fbe57506000919050565b506011546001600160a01b039091166000908152601b60205260409020541090565b600080612feb610fba565b9050670de0b6b3a7640000610c2882856148f4565b336001600160a01b037f000000000000000000000000000000000000000000000000000000000000000016146130485760405162461bcd60e51b8152600401610c849061499d565b600061305382612fe0565b9050600061306083610bfd565b905081601d60008282546130749190614a1a565b9250508190555082601e600082825461308d9190614a1a565b9250508190555080602060008282546130a69190614a1a565b9250508190555080601560008282546130bf9190614a1a565b909155506130cf9050858561389f565b6130d98584613742565b5050505050565b60006110d5600c54613714565b6000806130f983611496565b9050610c3281612fe0565b601e5460009080820361311657919050565b600061312182612fe0565b9050601d5481116131325750919050565b6000613145601d54836108a89190614a1a565b90508060000361315757509092915050565b6131618184614a1a565b935050505090565b6001600160a01b038116600090815260196020526040812081906001600382015460ff16600481111561319e5761319e6145ed565b0361322757805460018201546011546001600160a01b0387166000908152601b60205260409020549195509193508391111561321a576000806131e0876112f8565b90925090506131ef8287614a2d565b6001850181905595506132028186614a2d565b945061320d876135c5565b6132178183613936565b50505b828114613225578282555b505b50915091565b6001600160a01b038116600090815260196020526040902060020154600e54613257908290614a1a565b600e55506001600160a01b0316600090815260196020526040812060020155565b601c546001600160a01b038316600090815260196020526040902060038101805484919060ff191660018360048111156132b4576132b46145ed565b0217905550600060018083018290558183556002546001600160a01b038781168452601b6020526040842084815583019390935591909116908311801561335c57506001816001600160a01b031663de8fa4316040518163ffffffff1660e01b8152600401602060405180830381865afa158015613336573d6000803e3d6000fd5b505050506040513d601f19601f8201168201806040525081019061335a9190614a01565b115b1561346457600382015461010090046001600160801b03166000601c613383600187614a1a565b8154811061339357613393614a82565b600091825260209091200154601c80546001600160a01b03909216925082916001600160801b0385169081106133cb576133cb614a82565b600091825260208083209190910180546001600160a01b0319166001600160a01b03948516179055918316808252601983526040918290206003018054610100600160881b0319166101006001600160801b038816908102919091179091558251918252928101929092527f02b04ae5f7be9ca7c103293a2aa15f3c339d15d6eda53b721fef7b0e609c831a910160405180910390a150505b601c80548061347557613475614a98565b600082815260209020600019908201810180546001600160a01b0319169055019055604051631484968760e11b81526001600160a01b0386811660048301528216906329092d0e90602401600060405180830381600087803b1580156134da57600080fd5b505af11580156134ee573d6000803e3d6000fd5b50505060039092018054610100600160881b03191690555050505050565b6000610f038260055461351f9190614a2d565b6006546140e7565b6000806135326136bd565b600c8190556040518181529091507fc454ee9b76c52f782a256af821b857ca6e125d1e3333bcede402fec2bed9600c9060200160405180910390a16135756140fd565b919050565b6000670de0b6b3a7640000610c2883856148f4565b600081156135bc57816135ab68056bc75e2d63100000856148f4565b6135b59190614921565b9050610f03565b50600019610f03565b60115460125460408051808201825283815260208082018481526001600160a01b0387166000908152601b8352849020925183555160019092019190915581518481529081018390527fc437f324d85e369394148dd9d62f98f534b382e01ed3dd2eb98138fb6d3ab49a910160405180910390a1505050565b60008061364e8360010154614150565b60028401805490829055600e5491925090600090839061366f908490614a1a565b6136799190614a2d565b600e8190556040518181529091507f6bac5e0eb3c44eb03a60ab11ec3a2c051771616aecadbcfff2630aabae5203829060200160405180910390a150909392505050565b600080603c600d54426136d09190614a1a565b6136da9190614921565b905060006136ea60045483614197565b9050670de0b6b3a764000081600c5461370391906148f4565b61370d9190614921565b9250505090565b60225460009060ff1661372957506000919050565b610f038260075461373a9190614a2d565b6008546140e7565b8015612daf57604080516001600160a01b0384168152602081018390527f342693d2465f6f44931e41128424a0227e0cbc69d1c3917a839e6de71696d44c910160405180910390a1600154612daf906001600160a01b03168383614242565b6000826016546137b19190614a2d565b9050600954601854826137c49190614a2d565b11156138125760405162461bcd60e51b815260206004820152601d60248201527f436f6c6c61746572616c2064656274206c696d697420726561636865640000006044820152606401610c84565b60168190556040516340c10f1960e01b81526001600160a01b038581166004830152602482018490527f000000000000000000000000000000000000000000000000000000000000000016906340c10f1990604401600060405180830381600087803b15801561388157600080fd5b505af1158015613895573d6000803e3d6000fd5b5050505050505050565b604051632770a7eb60e21b81526001600160a01b038381166004830152602482018390527f00000000000000000000000000000000000000000000000000000000000000001690639dc29fac90604401600060405180830381600087803b15801561390957600080fd5b505af115801561391d573d6000803e3d6000fd5b505050508060165461392f9190614a1a565b6016555050565b81601860008282546139489190614a1a565b9250508190555081601660008282546139619190614a2d565b92505081905550806017600082825461397a9190614a1a565b925050819055508060156000828254612f749190614a2d565b60006001600160a01b0384161580613a125750604051630bb7c8fd60e31b81526001600160a01b038581166004830152861690635dbe47e890602401602060405180830381865afa1580156139ec573d6000803e3d6000fd5b505050506040513d601f19601f82011682018060405250810190613a109190614aae565b155b80613a25575081613a238585612dcc565b105b15613a3257506000613ac4565b60405163765e015960e01b81526001600160a01b0385811660048301526000919087169063765e015990602401602060405180830381865afa158015613a7c573d6000803e3d6000fd5b505050506040513d601f19601f82011682018060405250810190613aa0919061495c565b90506001600160a01b0381161580613ac0575082613abe8286612dcc565b105b9150505b949350505050565b613af960405180608001604052806000815260200160008152602001600081526020016000151581525090565b6001600160a01b03871660009081526019602052604090208054613b1e9088906140e7565b8083528690613b3690670de0b6b3a7640000906148f4565b613b409190614921565b60208301819052613b5090610bfd565b604083015281518154600091613b6591614a1a565b9050600083604001518360010154613b7d9190614a1a565b905081600003613be257613b908a61322d565b613b9b8a6004613278565b613ba58a82614294565b896001600160a01b0316600080516020614b2583398151915260008060006004604051613bd594939291906149d4565b60405180910390a2613d75565b6000613bee828461358f565b90506000818711613c0857613c038783614a1a565b613c12565b613c128288614a1a565b90506601c6bf52634000811180613ca957507f00000000000000000000000000000000000000000000000000000000000000006001600160a01b031663969c24526040518163ffffffff1660e01b8152600401602060405180830381865afa158015613c82573d6000803e3d6000fd5b505050506040513d601f19601f82011682018060405250810190613ca69190614a01565b84105b15613cc05750506001606085015250613d79915050565b5060405163015f109360e51b81526001600160a01b038d1690632be2126090613cf3908e9085908d908d90600401614a40565b600060405180830381600087803b158015613d0d57600080fd5b505af1158015613d21573d6000803e3d6000fd5b5050508385555060018401829055613d388461363e565b508a6001600160a01b0316600080516020614b25833981519152848487600201546004604051613d6b94939291906149d4565b60405180910390a2505b5050505b979650505050505050565b600080613d8f6136bd565b9050600083613d9e86886148f4565b613da89190614921565b90506000613db7600283614921565b613dc19084614a2d565b9050613dd581670de0b6b3a76400006140e7565b600c8190556040518181529091507fc454ee9b76c52f782a256af821b857ca6e125d1e3333bcede402fec2bed9600c9060200160405180910390a1612deb6140fd565b600080670de0b6b3a7640000613e2e84866148f4565b613e389190614921565b9050828110610c325760405162461bcd60e51b815260206004820152601f60248201527f46656520657863656564732072657475726e656420636f6c6c61746572616c006044820152606401610c84565b600082613e9e670de0b6b3a7640000866148f4565b613ea89190614921565b905081811115611b375760405162461bcd60e51b815260206004820152601d60248201527f4665652065786365656465642070726f7669646564206d6178696d756d0000006044820152606401610c84565b601c54600003613f4b576000600e819055600f8190556010819055601181905560128190556013819055601481905560158190556016819055601781905560188190556020819055601d819055601e555b565b81600003613f59575050565b601354600090613f71670de0b6b3a7640000846148f4565b613f7b9190614a2d565b90506000601454670de0b6b3a764000085613f9691906148f4565b613fa09190614a2d565b600e549091506000613fb28285614921565b90506000613fc08385614921565b9050613fcc83836148f4565b613fd69086614a1a565b601355613fe383826148f4565b613fed9085614a1a565b601455601154600090614001908490614a2d565b90506000826012546140139190614a2d565b6011839055601281905560408051848152602081018390529192507f9f8bc8ab0daf5bceef75ecfd2085d1fcc6548c657ea970d9a23a60610d0737e3910160405180910390a1886016600082825461406b9190614a1a565b9250508190555088601860008282546140849190614a2d565b92505081905550876015600082825461409d9190614a1a565b925050819055508760176000828254612bd49190614a2d565b600082156140de576000836140cb84876148f4565b6140d59190614921565b9150610c329050565b50600019610c32565b60008183106140f65781610c32565b5090919050565b6000600d544261410d9190614a1a565b9050603c811061414d5742600d8190556040519081527f860f8d2f0c74dd487e89e2883e3b25b8159ce1e1b3433a291cba7b82c508f3bc906020016120ac565b50565b601054600090819080820361416757839150614190565b600f548061417757614177614acb565b8161418282876148f4565b61418c9190614921565b9250505b5092915050565b6000631f5405008211156141ad57631f54050091505b816000036141c45750670de0b6b3a7640000610f03565b670de0b6b3a764000083835b6001811115614238576141e4600282614ae1565b600003614209576141f582836142d5565b9150614202600282614921565b90506141d0565b61421382846142d5565b925061421f82836142d5565b9150600261422e600183614a1a565b6142029190614921565b612deb82846142d5565b604080516001600160a01b038416602482015260448082018490528251808303909101815260649091019091526020810180516001600160e01b031663a9059cbb60e01b179052611fb890849061430c565b6001600160a01b0382166000908152601a6020526040812080548392906142bc908490614a2d565b925050819055508060156000828254612f749190614a1a565b6000806142e283856148f4565b9050670de0b6b3a76400006142f8600282614921565b6143029083614a2d565b613ac49190614921565b60006143216001600160a01b0384168361436f565b905080516000141580156143465750808060200190518101906143449190614aae565b155b15611fb857604051635274afe760e01b81526001600160a01b0384166004820152602401610c84565b6060610c328383600084600080856001600160a01b031684866040516143959190614af5565b60006040518083038185875af1925050503d80600081146143d2576040519150601f19603f3d011682016040523d82523d6000602084013e6143d7565b606091505b5091509150612deb8683836060826143f7576143f28261443e565b610c32565b815115801561440e57506001600160a01b0384163b155b1561443757604051639996b31560e01b81526001600160a01b0385166004820152602401610c84565b5080610c32565b80511561444e5780518082602001fd5b604051630a12f52160e11b815260040160405180910390fd5b60006020828403121561447957600080fd5b5035919050565b6001600160a01b038116811461414d57600080fd5b6000602082840312156144a757600080fd5b8135610c3281614480565b801515811461414d57600080fd5b6000602082840312156144d257600080fd5b8135610c32816144b2565b600080600080600080600080610100898b0312156144fa57600080fd5b505086359860208801359850604088013597606081013597506080810135965060a0810135955060c0810135945060e0013592509050565b60008060006060848603121561454757600080fd5b833561455281614480565b9250602084013561456281614480565b9150604084013561457281614480565b809150509250925092565b60008060008060008060c0878903121561459657600080fd5b86356145a181614480565b9550602087013594506040870135935060608701356145bf81614480565b925060808701356145cf81614480565b915060a08701356145df816144b2565b809150509295509295509295565b634e487b7160e01b600052602160045260246000fd5b6005811061414d57634e487b7160e01b600052602160045260246000fd5b858152602081018590526040810184905260a0810161463f84614603565b8360608301526001600160801b03831660808301529695505050505050565b6000806040838503121561467157600080fd5b823561467c81614480565b946020939093013593505050565b6000806000806000806000806000806101408b8d0312156146aa57600080fd5b8a356146b5816144b2565b995060208b01356146c5816144b2565b985060408b0135975060608b0135965060808b01356146e3816144b2565b955060a08b0135945060c08b01356146fa81614480565b935060e08b013561470a81614480565b92506101008b013561471b81614480565b91506101208b013561472c81614480565b809150509295989b9194979a5092959850565b600080600080600080600060e0888a03121561475a57600080fd5b87359650602088013561476c81614480565b9550604088013561477c81614480565b9450606088013561478c81614480565b9699959850939660808101359560a0820135955060c0909101359350915050565b600080600080600060a086880312156147c557600080fd5b85356147d081614480565b97602087013597506040870135966060810135965060800135945092505050565b6000806000806080858703121561480757600080fd5b843561481281614480565b9350602085013561482281614480565b93969395505050506040820135916060013590565b6000806020838503121561484a57600080fd5b823567ffffffffffffffff8082111561486257600080fd5b818501915085601f83011261487657600080fd5b81358181111561488557600080fd5b86602082850101111561489757600080fd5b60209290920196919550909350505050565b6000806000606084860312156148be57600080fd5b83356148c981614480565b95602085013595506040909401359392505050565b634e487b7160e01b600052601160045260246000fd5b8082028115828204841417610f0357610f036148de565b634e487b7160e01b600052601260045260246000fd5b6000826149305761493061490b565b500490565b6020808252600d908201526c43616c6c6572206e6f7420424f60981b604082015260600190565b60006020828403121561496e57600080fd5b8151610c3281614480565b6020808252600a908201526927b7363c9037bbb732b960b11b604082015260600190565b60208082526017908201527f4e6f74204c69717569646174696f6e204d616e61676572000000000000000000604082015260600190565b8481526020810184905260408101839052608081016149f283614603565b82606083015295945050505050565b600060208284031215614a1357600080fd5b5051919050565b81810381811115610f0357610f036148de565b80820180821115610f0357610f036148de565b6001600160a01b03948516815260208101939093529083166040830152909116606082015260800190565b600081614a7a57614a7a6148de565b506000190190565b634e487b7160e01b600052603260045260246000fd5b634e487b7160e01b600052603160045260246000fd5b600060208284031215614ac057600080fd5b8151610c32816144b2565b634e487b7160e01b600052600160045260246000fd5b600082614af057614af061490b565b500690565b6000825160005b81811015614b165760208186018101518583015201614afc565b50600092019182525091905056fec3770d654ed33aeea6bf11ac8ef05d02a6a04ed4686dd2f624d853bbec43cc8ba264697066735822122067da52f4c90a247c268122f2e467ec89a104d3a9e25fb4474f965052e856d94d64736f6c63430008180033",
    "linkReferences": {}
  },
  "methodIdentifiers": {
    "BOOTSTRAP_PERIOD()": "c35bc550",
    "CCR()": "5733d58f",
    "DECIMAL_PRECISION()": "a20baee6",
    "L_collShares()": "4be09491",
    "L_debt()": "e47cf0c3",
    "MCR()": "794e5724",
    "PRISMA_CORE()": "cc9641a8",
    "Troves(address)": "6ef64338",
    "addCollateralSurplus(address,uint256)": "789c6b93",
    "applyPendingRewards(address)": "0b076557",
    "baseRate()": "1f68f20a",
    "borrowerOperationsAddress()": "b7f8cf9b",
    "borrowingFeeEnabled()": "01203112",
    "borrowingFeeFloor()": "31c7a261",
    "claimCollateral(address)": "8235b284",
    "closeTrove(address,address,uint256,uint256)": "c9a4cbf1",
    "closeTroveByLiquidation(address)": "25019ee9",
    "collGasCompPercentage()": "055b0332",
    "collateralToken()": "b2016bd4",
    "convertEthToYieldTokens(uint256)": "7a3a91f0",
    "convertSharesToEth(uint256)": "fd7a687d",
    "convertSharesToYieldTokens(uint256)": "4610f145",
    "convertYieldTokensToEth(uint256)": "e31b5fa7",
    "convertYieldTokensToShares(uint256)": "08fdb61b",
    "debtToken()": "f8d89898",
    "decayBaseRateAndGetBorrowingFee(uint256)": "b2f29d7b",
    "decreaseDebtAndSendCollateral(address,uint256,uint256)": "e9186c94",
    "defaultedCollShares()": "9e5033ea",
    "defaultedDebt()": "20d17d7b",
    "fetchExchangeRate()": "27fbd6ba",
    "fetchPriceInUsd()": "df8a902f",
    "finalizeLiquidation(address,uint256,uint256,uint256,uint256)": "c5dd9d9a",
    "getBorrowingFee(uint256)": "631203b0",
    "getBorrowingFeeWithDecay(uint256)": "477d66cf",
    "getBorrowingRate()": "f36b2425",
    "getBorrowingRateWithDecay()": "66ca4a21",
    "getCurrentICR(address,uint256)": "d293c710",
    "getEntireDebtAndCollShares(address)": "a92a234d",
    "getEntireSystemBalances()": "01c799fc",
    "getEntireSystemColl()": "887105d3",
    "getEntireSystemCollShares()": "b341c5fc",
    "getEntireSystemDebt()": "795d26c3",
    "getNominalICR(address)": "b0d8e181",
    "getPendingCollSharesAndDebtRewards(address)": "3d05f7e3",
    "getRedemptionFeeWithDecay(uint256)": "d5b35635",
    "getRedemptionRate()": "2b11551a",
    "getRedemptionRateWithDecay()": "c52861f2",
    "getTotalActiveCollShares()": "07ec2090",
    "getTotalActiveDebt()": "d128080c",
    "getTroveCollAndDebt(address)": "2b2b2bac",
    "getTroveCollSharesAndDebt(address)": "ce841292",
    "getTroveFromTroveOwnersArray(uint256)": "d9a72444",
    "getTroveOwnersCount()": "49eefeee",
    "getTroveStake(address)": "64cee260",
    "getTroveStatus(address)": "21e37801",
    "guardian()": "452a9320",
    "harvest(bytes)": "ce5c7f61",
    "harvestableBalance()": "373420d9",
    "hasPendingRewards(address)": "e2ac77b0",
    "lastCollSharesError_Redistribution()": "cb267555",
    "lastDebtError_Redistribution()": "9ed72542",
    "lastFeeOperationTime()": "d380a37c",
    "liquidationManager()": "1ef3a04c",
    "maxBorrowingFee()": "4056d9fc",
    "maxRedemptionFee()": "91245f9f",
    "maxSystemDebt()": "2f5c83a8",
    "minuteDecayFactor()": "bc006c38",
    "movePendingTroveRewardsToActiveBalances(address)": "9211d1af",
    "openTrove(address,uint256,uint256,address,address,bool)": "4adc8d43",
    "owner()": "8da5cb5b",
    "paused()": "5c975abb",
    "preemptivelyHarvest()": "e28478df",
    "priceFeed()": "741bef1a",
    "redeemCollateral(uint256,address,address,address,uint256,uint256,uint256)": "bcd37526",
    "redemptionFeeFloor()": "7e95d664",
    "rewardSnapshots(address)": "1673c79a",
    "setAddresses(address,address,address)": "363bf964",
    "setBorrowingFeeEnabled(bool)": "a6354430",
    "setCollGasCompPercentage(uint256)": "0cea32fa",
    "setParameters(uint256,uint256,uint256,uint256,uint256,uint256,uint256,uint256)": "34ba3c71",
    "setPaused(bool)": "16c38b3c",
    "setPriceFeed(address)": "724e78da",
    "sortedTroves()": "ae918754",
    "startSunset()": "1289fefb",
    "sunsetting()": "9484fb8e",
    "surplusCollShares(address)": "a5b34e5d",
    "systemDeploymentTime()": "720fbe2c",
    "totalActiveCollBalance()": "2b37696c",
    "totalActiveCollShares()": "a54cd6fc",
    "totalActiveDebt()": "5598172f",
    "totalCollExpectedValue()": "cce4ce95",
    "totalCollShares()": "c88be9d2",
    "totalStakes()": "bf9befb1",
    "totalStakesSnapshot()": "807d138d",
    "totalSystemCollSharesSnapshot()": "b045ebe1",
    "updateTroveFromAdjustment(bool,bool,uint256,uint256,bool,uint256,address,address,address,address)": "8e415ea8"
  },
  "id": 52
}